:10000000A01F0020C91C00001D1D0000551B000082
:10001000551B0000551B0000551B0000551B000020
:10002000551B0000551B0000551B000095170000D4
:10003000551B0000551B000051170000551B000008
:100040008D1C00007B7400008D1C00008D1C0000C6
:100050008D1C00008D1C00008D1C00008D1C0000FC
:100060008D1C00008D1C00008D1C00008D1C0000EC
:100070008D1C00008D1C00008D1C00008D1C0000DC
:100080008D1C00008D1C00008D1C00008D1C0000CC
:100090008D1C00008D1C00008D1C00008D1C0000BC
:1000A0008D1C00008D1C00008D1C00008D1C0000AC
:1000B0008D1C00008D1C00008D1C00008D1C00009C
:1000C0008D1C00008D1C00008D1C00008D1C00008C
:1000D0008D1C00008D1C00008D1C00000000000025
:1000E0008D14000000000000CD1A00000000000088
:1000F000CD1A000000000000CD1A00000000000032
:10010000CD1A000000000000CD1A00000000000021
:10011000F594000000000000CD1A0000000000006F
:10012000CD1A000000000000CD1A00000000000001
:10013000CD1A000000000000417400000000000023
:10014000CD1A00007C2F002019990000000000004B
:10015000CD1A000000000000CD1A000000000000D1
:10016000CD1A000000000000B515000000000000DE
:10017000CD1A000000000000CD1A000000000000B1
:10018000CD1A000000000000CD1A000000000000A1
:10019000CD1A000000000000CD1A00000000000091
:1001A0007574000000000000CD1A0000000000007F
:1001B000CD1A000000000000CD1A00000000000071
:1001C000CD1A000000000000CD1A00000000000061
:1001D000CD1A000000000000CD1A00000000000051
:1001E000CD1A000000000000CD1A00000000000041
:1001F000CD1A000000000000CD1A00000000000031
:10020000CD1A000000000000CD1A00000000000020
:10021000CD1A00007BB972B90029BEBF00204FF093
:10022000004106E008BF00281CBF6FF000414FF0FE
:10023000FF3000F0D1B9ADF1080C6DE904CE002912
:1002400009DB002B1ADB00F061F8DDF804E0DDE9E2
:10025000022304B07047404261EB4101002B1BDBDD
:1002600000F054F8DDF804E0DDE9022304B0404278
:1002700061EB4101524263EB43037047524263EB2F
:10028000430300F043F8DDF804E0DDE9022304B0A5
:10029000404261EB41017047524263EB430300F07F
:1002A00035F8DDF804E0DDE9022304B0524263EBE7
:1002B0004303704753B94AB9002908BF00281CBF3F
:1002C0004FF0FF314FF0FF3000F086B9ADF1080C70
:1002D0006DE904CE00F01AF8DDF804E0DDE9022350
:1002E00004B07047430803F05533C01A830803F085
:1002F000333300F03330184400EB101000F00F30AF
:1003000000EB002000EB0040000E70472DE9F047A5
:10031000089E04468846002B4BD18A42154667D971
:10032000B2FA82F24AB1C2F1200701FA02F320FACE
:1003300007F7954047EA030894404FEA154E230C0F
:10034000B8FBFEF71FFA85FC0EFB178843EA08434B
:1003500007FB0CF1994209D9EB1807F1FF3080F047
:100360001B81994240F21881023F2B445B1AA4B2D0
:10037000B3FBFEF00EFB103344EA034400FB0CFC1D
:10038000A44509D92C1900F1FF3380F00781A44559
:1003900040F2048102382C4440EA0740A4EB0C04EC
:1003A00000271EB1D4400023C6E900433946BDE80A
:1003B000F0878B4209D9002E00F0EB800027C6E9B8
:1003C000000138463946BDE8F087B3FA83F7002FBD
:1003D00047D18B4202D3824200F2FA80841A61EB49
:1003E000030301209846002EE0D0C6E90048DDE76F
:1003F00002B9FFDEB2FA82F2002A40F08F80491B78
:100400004FEA154E1FFA85F80127B1FBFEFC230CBD
:100410000EFB1C1143EA014308FB0CF1994207D97A
:10042000EB180CF1FF3002D2994200F2CD808446E5
:10043000591AA3B2B1FBFEF00EFB101443EA0444B8
:1004400008FB00F8A04507D92C1900F1FF3302D2B0
:10045000A04500F2B6801846A4EB080440EA0C4020
:100460009FE7C7F1200CBB4022FA0CFE4EEA030EB8
:1004700001FA07F420FA0CF521FA0CF34FEA1E48B2
:100480002543B3FBF8F92C0C08FB19331FFA8EFA3D
:1004900044EA034309FB0AF49C4202FA07F200FA19
:1004A00007F10BD91EEB030309F1FF3080F08780C1
:1004B0009C4240F28480A9F1020973441B1BADB237
:1004C000B3FBF8F008FB103345EA034400FB0AFADB
:1004D000A24508D91EEB040400F1FF336BD2A245FC
:1004E00069D90238744440EA0940A0FB0289A4EBB0
:1004F0000A044C45C2464B4654D351D0002E69D015
:10050000B1EB0A0564EB030404FA0CFCFD40FC406B
:100510004CEA0505C6E90054002747E7C2F120036D
:1005200020FA03F7954001FA02F021FA03F34FEAAB
:10053000154E3843010CB3FBFEF71FFA85F80EFB8E
:10054000173341EA034107FB08F38B4204FA02F434
:1005500007D9691807F1FF3C2FD28B422DD9023FF2
:100560002944CB1A81B2B3FBFEF00EFB103341EAF3
:10057000034100FB08F38B4207D9691800F1FF3CE7
:1005800017D28B4215D902382944C91A40EA0747C5
:100590003BE73746304609E70746E7E61846FBE6FD
:1005A0004145ABD2B8EB020A69EB0E0201381346A3
:1005B000A4E76046E9E7184695E76746D1E7814634
:1005C0007CE702382C4447E7ACF1020C2B442FE7C0
:1005D000384608E73746E9E6704700BF30B51848A7
:1005E00087B009F00BFA044620B9164800F0C8FBA2
:1005F00007B030BD0368144D1A680146134800F077
:10060000BFFB636820219B6820469847636802AA65
:10061000DB680E2120469847636804AADB68112135
:1006200020469847059B00930299DDE9032328465D
:1006300000F0A6FB4FF4FA6009F0C6FEE1E700BF48
:1006400079AD00007DAD0000A2AD000092AD0000CC
:1006500010B54FF02003EFF3118483F3118800F0FD
:10066000F5FB084A0123C2F840354FF08042C2F83A
:100670007835054B4FF0FF329A62DA6284F31188C5
:10068000002010BD00E0014000ED00E008B5044688
:10069000084611461A46A04709F0CAFE01F0D0FAF2
:1006A00070B5C668C07A0C254D43884206EB050438
:1006B000B4BF71592146202492FBF4F401EB84016C
:1006C000196002F01F0070BD07B501ABFFF7E8FF2E
:1006D000019A012303FA00F013680343136003B087
:1006E0005DF804FB07B501ABFFF7DAFF019A0123C0
:1006F00003FA00F0136823EA0003136003B05DF807
:1007000004FB2DE9F843044643680589006894F822
:100710000AC05D43284400214FF00C0E8C4505DCD7
:1007200000252389AB4222DCBDE8F883D4F80C8095
:10073000B5FBF3F20EFB01F71F2A08EB0706C8BF53
:100740001F324FEA930306F10409C8BF520903F1AF
:100750000303C6E9019923F00303D4BFE17248F80B
:10076000070001F10101C8BF00EB8200D6E7626813
:10077000E36820686A4381181E1D86509A684A60A3
:100780009A682046116099602A460021FFF79CFF75
:100790000135C6E72DE9F04F89B0867A00AFC7E989
:1007A0000132B3000A3303F4FF63ADEB030D43687A
:1007B000E94605460333484623F0030340F804396D
:1007C0004FF0FF3400234FF00C0C5A1E9E42FA618A
:1007D0000ADD2BB102689208033222F00302426064
:1007E00050F8042F8A420BD2FB69013313D1BA6C43
:1007F000002313606FF00B002437BD46BDE8F08F77
:10080000EA680CFB032202F1040E5268724518BF1D
:100810001C460133D9E7631CE9D0E96859F8242064
:100820000C2303FB041353F8046F9E4263D0D6E9F4
:100830000013196031684B602B682146F31A284673
:1008400093FBF2F2FFF74EFFA9EB890304F1010BD2
:100850003B6109EB8404F9692B680BF1FF3291428B
:10086000A6EB03030DDCBA681146FA690A6059F871
:10087000222093FBF2F37A681360BB6C00201E60A9
:10088000BAE754F8042B93FBF2F33A699B00FB6040
:1008900004EB440313447B614FF0010AD4F8008059
:1008A0000AFB08F3BB61F3183B60FB6859460AEB8F
:1008B00003022846FFF708FF3B682A68298908F1E8
:1008C000FF389844A8EB02086A684A4390450AD268
:1008D000EA687969B8690A44111D31509168596014
:1008E00091680B6093600AF1010ABAF1040FD5D147
:1008F0000BF1010BAFE76FF00A007DE72DE9F04F38
:1009000085B0837A9B000A3303F4FF6300AFADEB3D
:10091000030D4368EA46033323F003030546CAF890
:1009200000305446012081424CD20C4616463246D5
:10093000214628465AF82480D5F80090FFF7C4FED7
:10094000002C48D007F10C03324621462846FFF719
:10095000A7FEFA68042390FBF3F083001068D840E8
:1009600000F00F000F2836D126F003034FF00009E6
:100970007B6008F1FF3B7B684B441A4621462846C2
:100980003B60FFF7AFFE3B689E4212D008FB03F2CC
:10099000B5F808E06B68296802EB0B0C03FB0EF35B
:1009A0009C4501EB020004D240688B5803608B58D1
:1009B000586009F10109B9F1040FDCD196FBF9F691
:1009C000013CB4E723689B08033323F0030344F896
:1009D000043F0130A7E708FB06F62A68696809EBBF
:1009E000060308F1FF389844A8EB02082A8951430E
:1009F00088450BD2E9680C2202FB0414221D49F839
:100A00000620A2685A60A2681360A3601437BD462E
:100A1000BDE8F08F002070470B6801330B60014B7D
:100A20001B681847002D00202DE9F04F85B09B462C
:100A30000E9CDFF890A0012CB8BF0124012B0CBF45
:100A400030232023154680468946019402930126CF
:100A50000A2700220AF101040AB9AA451FD2B5FBF0
:100A6000F4F049463030C04701360122013F012FE2
:100A7000B5FBF4F14FF00A0304FB1155BAFBF3FA8E
:100A8000E8D1494605F13000C047BBF1030F03D15F
:100A9000019B9C1B002C0FDC05B0BDE8F08F019B77
:100AA000BB42E3DBBBF1020FE0D849460298039258
:100AB0000136C047039AD9E749462020C047013C88
:100AC000E8E700BFFFC99A3B30B58A680C68551C3F
:100AD00014B14B68934201DC8D6030BD013B934201
:100AE00008BF00228D600CBFE254A054F5E700005F
:100AF000014B1860704700BF002D00202DE9F04F1A
:100B000089B01C464FF0000A531E06460F46049358
:100B10004FF0FF39D046002505E06DB9252800F0DB
:100B200012813946B047049B13F8010F0493002843
:100B3000F3D109B0BDE8F08F642861D019D8392805
:100B40000AD8312850D22D283CD030283DD0252835
:100B500008D13946B047DEE7582800F0888063287E
:100B600000F0EB8039462520B047049B39461878C1
:100B7000F0E7702871D006D8692841D06C283CD0A5
:100B80006828D0D0EEE7752857D017D87328E9D158
:100B9000236804F1040B1C46254615F8010B0028B8
:100BA00040F0C080B8F1030F40F0D680E41AA9EB02
:100BB0000404002C00F3BC805C46ACE7782856D0D7
:100BC0007A28DEE74FF00308ADE7B9F1000F0EDA3F
:100BD000B8F1000F00F0BD80A0F13009B8F1000FAE
:100BE00008BF4FF002089EE7B9F1000FF4DB0A23BB
:100BF00003FB0909A9F13009F0E70AF1010A92E7BC
:100C0000BAF1010FC5BF073424F0070325681D683A
:100C1000D4BF043403F10804002D05DA39462D2031
:100C2000B0476D4209F1FF39CDF8009043462A469E
:100C300039463046FFF7F8FE6DE7BAF1010FC5BF40
:100C4000073424F0070322681A68CDF80090CCBF5F
:100C500003F1080404344346EAE739463020B0473C
:100C600039467820B0474FF008094FF00108BAF133
:100C7000010FC7BF073424F0070323680593C2BFE1
:100C800003F108041B6805934FF008024FF00003BE
:100C9000D8BF04340393079393460BF1FF3B059BA6
:100CA0004FEA8B0023FA00F010F00F0009D1079BE8
:100CB00013B9BBF1000F24D14FF0300C07E0069AB6
:100CC000EBE709288CBF4FF0570C4FF0300C39463A
:100CD00060440692B047039B079501330393BBF131
:100CE000000FECD1B8F1030F7FF415AF039BC3EBFA
:100CF0004905002D7FF70FAF39462020B047013D51
:100D0000F7E7531E91450693E9DBB8F1010F03D1D4
:100D100039463020B047E2E7B8F1020FDFD139465B
:100D20002020F7E7394603932C46B047039B33E76F
:100D300039462020B047013C3BE72068251D394655
:100D4000B0472C46E7E6AA46A8464FF0FF390125F2
:100D5000E9E64FF00108E6E65C460546E3E60000FA
:100D600013B502AC002344F8043D02460B46034889
:100D70002146FFF7C3FE019802B010BD190A00001A
:100D80000FB407B504A951F8040B0191FFF7E8FF70
:100D900003B05DF804EB04B0704700000CB430B54C
:100DA00085B008ABCDE9010153F8042B009304464C
:100DB000002501A906480395FFF7A0FEDDE90230F2
:100DC0009842B8BF255405B0BDE8304002B0704726
:100DD000C90A0000704700000C4B1B78062B10D18D
:100DE0000B4B1B681A070CD10A4B186800F0F00374
:100DF000302B08D000F0E000A0F1400358425841E9
:100E00007047002070470120704700BFE00F00F0DE
:100E1000E40F00F0E80F00F0094B1B78062B0CD113
:100E2000084B1B681A0708D1074B186800F0F00040
:100E3000A0F130035842584170470020704700BF6E
:100E4000E00F00F0E40F00F0E80F00F008B5FFF746
:100E5000C3FF28B1784B794A1B68C3F3042313609E
:100E6000FFF7DAFF10B1764B764A1A60FFF7B4FF4E
:100E700028B1754B754A1B68C3F342331360FFF703
:100E8000CBFF20B1724AD36823F08073D360FFF7A1
:100E9000A3FF40B14FF080430022C3F80C21C3F8F8
:100EA0001021C3F83825FFF7B7FF10B1694B0322B3
:100EB0001A60FFF7B1FF40B1674B05221A600122AB
:100EC0009A6700229A603F225A60644B1B78062B77
:100ED00050D1634B1B6819074CD1624B1B6803F060
:100EE000F003502B46D14FF080525F4BD2F80414E0
:100EF000C3F82015D2F80814C3F82415D2F80C143E
:100F0000C3F82815D2F81014C3F82C15D2F814140D
:100F1000C3F83015D2F81814C3F83415D2F81C14DD
:100F2000C3F84015D2F82014C3F84415D2F824149D
:100F3000C3F84815D2F82814C3F84C15D2F82C146D
:100F4000C3F85015D2F83014C3F85415D2F834143D
:100F5000C3F86015D2F83814C3F86415D2F83C14FD
:100F6000C3F86815D2F84014C3F86C15D2F84424BD
:100F7000C3F87025FFF730FF28B13C4B3C4A1B6893
:100F800003F04F031360FFF727FF48B14FF0804392
:100F9000D3F80024D20744BF6FF00102C3F8002445
:100FA000344B1B68062B08D1334B1B68062B01BF43
:100FB000324A136843F4806313604FF01023D3F870
:100FC0000022002A03DBD3F80432002B2FDA2C4B4B
:100FD0000122C3F80425D3F80024002AFBD04FF0E7
:100FE00010221521C2F80012D3F80024002AFBD0E9
:100FF0004FF010231522C3F80422214B1A46D3F8D0
:1010000000140029FBD00021C3F80415D2F80034E5
:10101000002BFBD0BFF34F8F1A491B4BCA6802F459
:10102000E0621343CB60BFF34F8F00BFFDE7174B68
:10103000174A1A6008BD00BF240300104035014064
:1010400074C007400DF0ADBA440200103C050040EA
:10105000F0ED00E0A005004010560040E00F00F069
:10106000E40F00F0E80F00F000C00040580200104C
:10107000E40E004030010010340100103C17004025
:1010800000E0014000ED00E00400FA05042D00201E
:101090000090D0030369C1688B429DBF8268D2185B
:1010A00002F1FF3203F1FF3394BF501A581A704710
:1010B0002DE9F041D0E902670446F61B40689642EC
:1010C00088461546384405D900F089FE3D44E56060
:1010D000BDE8F0813246AD1B00F081FE2A4608EBE8
:1010E0000601606800F07BFEF1E72DE9F843C56872
:1010F0000646894617464FF000083469B3687068A1
:10110000A54228BFE418013C621B5C1BBC4228BFFF
:101110003C46944228BF144649462844224600F0E3
:101120005EFEB3682544AB4208BF00253F1BA044C8
:10113000A144F560E1D14046BDE8F88310B5114CFB
:10114000114AA2610323C4E90433104BE361226610
:101150004FF480630E4A23626266002310220D4919
:10116000A362E01D6362E3622367E3666367A266CE
:1011700000F00EFE0849204600F00AFE2023A3716D
:1011800010BD00BF98110020D3AD0000100000205A
:1011900000000020DCAD0000E0AD0000F8B5184C08
:1011A000182300FB033503FB00402544C46A012CCF
:1011B0000F46164611D003D3022C1BD000240AE0A0
:1011C0002846FFF767FF864205D83246394628464B
:1011D000FFF76EFF34462046F8BD2846FFF75AFF5A
:1011E0008642344628BF0446224639462846FFF741
:1011F0005FFFF0E72846BDE8F840FFF776BF00BF85
:1012000098110020FFF79ABF13B5114CBFF35B8F05
:101210002068BFF35B8F60B90E4808F0EFFBBFF3A7
:101220005B8F54E8003F44E80002002AF9D1BFF385
:101230005B8F436804221B680DEB0201984700286E
:1012400002DA00F031FA0190019802B010BD00BF3F
:1012500010040020E7AD000010B5054CFFF7D2FFE9
:101260002046FFF745FC204600F00AFE002010BD96
:10127000751200002DE9F34102AE144D06F8010D80
:10128000074603244FF02003EFF3118883F31188FE
:10129000012231460020FFF781FF88F3118828B131
:1012A00001232B70384602B0BDE8F0812B78002B6B
:1012B000F8D0013C07D009F0B5FA0028E2D10220AD
:1012C00009F082F8DEE72C70ECE700BF1404002080
:1012D00010B54FF02003EFF3118283F31188114C06
:1012E000237823B982F311886FF0440010BD013BCD
:1012F000DBB2237023B182F311886FF00F00F5E7A2
:10130000094B1878012128B1217082F311886FF000
:101310000A00EBE7197082F31188044A1160187013
:10132000E4E700BF1704002016040020040000407A
:1013300008B500221046012100F0B0FB002000F0AB
:101340007BFB002008BD0000F8B54FF02002EFF352
:10135000118382F31188264A1078441C147070B1EE
:1013600083F311884FF08043D3F80C3403F001135A
:10137000B3F1011F0CBF00206FF0430007E01D4DCB
:101380002F782FB1107083F311886FF00A00F8BD29
:1013900001262E7083F311884FF0804419B338462C
:1013A00000F05AFBC4F80071D4F80433C4F80463A5
:1013B0002660D4F8002192B10022C4F800210E4A20
:1013C00013F0010F4FF0010308BFC4F808330020E9
:1013D000C2F8803100F030FB00232B70C2E720BF41
:1013E00040BF20BFE5E7C4F800112660F4E700BF66
:1013F000170400201604002000E100E038B54FF08B
:101400002002EFF3118382F311881D4D2A788AB1EF
:1014100083F311884FF08042D2F81C34D2F818249C
:1014200003F0030343F48033934314BF6FF043008E
:10143000002038BD01242C7083F311884FF08043C5
:10144000104DC3F80421C3F818152C6011F00301E6
:101450004FF01805C3F80853C3F80C21C3F8102146
:10146000D8D11022C3F83825C3F80453C3F8044375
:10147000FFF76AFF0028CDD1034BC3F80041C9E74D
:10148000150400200800004000E100E0F8B54FF02E
:1014900080430546D3F808C1D3F80423D3F80C449D
:1014A000D3F80071D3F80401D3F80C11D3F810610C
:1014B00002F00102BCF1000F03D04FF0000CC3F8A2
:1014C00008C127B14FF080430027C3F800713AB13B
:1014D000E30341BF4FF080430122C3F808231A61A0
:1014E00020B14FF080430022C3F8042149B14FF0EE
:1014F00080440021C4F80C112846FFF7E9FE0123BF
:10150000636176B14FF0804300210124C3F81011CC
:101510002846C3F80443FFF717FF10B9014BC3F87F
:101520000041F8BD00E100E0084BC3F84005D3F8E6
:101530000435C01A20F07F40054B0238984282BF24
:10154000044B4FF40032C3F80021704700100140F3
:10155000FDFF7F0000E100E038B5114B114CD3F8DE
:1015600004052268104D801A2B6820F07F408342CA
:101570000FD8B0FBF3F00D490968884228BF084630
:1015800000FB032323F07F432360094B186008F01E
:10159000D1FF20682B681844BDE83840FFF7C4BF6E
:1015A000001001401C040020302F002018040020EF
:1015B0002C2F0020024B0022C3F84021FFF7CCBFA4
:1015C00000100140084B00281A68084B93FBF2F307
:1015D00002DB8342A8BF034605490B600549086842
:1015E00002FB0300FFF7A0BF302F0020FFFF7F00AA
:1015F000180400201C04002008B5074B0022C3F883
:101600004021064B4FF40032C3F88021FFF7A4FFBE
:10161000034B01221A6008BD0010014000E100E008
:101620001804002070B5194808F0E8F950B3436871
:10163000174D1B6801219847164B00241C60164B60
:1016400001261E60154BC5F808451B68C5F84035D6
:101650004FF48033C5F84433C5F80433104BC5F854
:1016600040414FF40032C3F8802131462246112018
:1016700000F014FA112000F0DFF90A4B20461E603A
:101680002E6070BD4FF0FF30FBE700BF0CAE0000D6
:10169000001001401C04002018040020302F0020FE
:1016A00000E100E0081001400A4A0B49D2F8043575
:1016B00070B50D68094ED6E90001D2F80445A34281
:1016C00005D168431B1A23F07F43184470BD23469D
:1016D000F1E700BF00100140302F00206013002010
:1016E00007488168006A884208D000B508F01EFEED
:1016F0005DF804EB03494FF080520A607047000028
:101700002C13002004ED00E0044800232021C2181F
:101710000133272B82F80013F9D1704700E100E074
:10172000084A094993680968D966084998664B6868
:1017300043F080534B60002383F311889368D86E85
:10174000704700BF2C130020ACB3000000ED00E098
:10175000202080F311880D498A684FF02C00104436
:10176000EFF3098C80E8F01F094F4FF000660A6A1A
:101770008A603E60906E0023936680F3118802F1C8
:101780002C0090E8F01F8CF3098870472C13002080
:1017900004ED00E01EF0040F0CBFEFF30880EFF340
:1017A0000980816931F8021C11F0FF010229FFD084
:1017B00000B500F015FA00BD38B5194C05461948BA
:1017C000FFF7DEFAA36AD90602D51748FFF7D8FA61
:1017D000A36A1A0702D51548FFF7D2FAA36A9B0736
:1017E0000ED51348FFF7CCFA616BA36A180607D52C
:1017F0001048FFF7C5FA1DB1A36A23F08003A36266
:10180000074CA26AD20702D50B48FFF7B9FAA36AC0
:101810009B0602D50948FFF7B3FA002038BD00BF88
:1018200000ED00E07BAF000092AF0000A4AF00002D
:10183000B8AF0000D1AF0000E8AF000008B0000072
:1018400038B51B4C05461B48FFF79AFAA36AD80423
:1018500004D51948FFF794FA002038BDA36A19058A
:1018600001D51648F6E7A36A9A0514D51448FFF780
:1018700087FAA16BA36A1B0407D51248FFF780FA09
:101880001DB1A36A23F40043A362094B9B6A580568
:10189000E2D50D48DEE7A36A5905FAD4A36ADA0552
:1018A00001D50A48D6E7A36A9B04D5D50848D1E7F5
:1018B00000ED00E02CAE000092AF0000A4AF0000ED
:1018C00043AE00005DAE000073AE00008FAE0000BE
:1018D00008B0000010B5194C1948FFF751FAA36A77
:1018E0009A0102D51748FFF74BFAA36ADB0102D52C
:1018F0001548FFF745FAA36A180302D51348FFF706
:101900003FFA0E4CA36A590302D51148FFF738FA83
:10191000A36A9A0302D50F48FFF732FAA36ADB03E2
:1019200002D50D48FFF72CFA044A936A6FEA034385
:101930006FEA13439362002010BD00BF00ED00E08A
:1019400038B0000051B0000065B0000080B0000069
:101950009FB00000C5B00000E0B0000038B5274CD3
:101960006368C3F30803DA1E0546092A3AD8DFE89C
:1019700002F0053335303939393939372048FFF726
:10198000FFF9E36A9A0703D51E48FFF7F9F902E069
:10199000E36A5B0005D400202946BDE8384000F02A
:1019A000EDB81948FFF7ECF9184B1B782BB1012063
:1019B000FFF702FF0628EFD138BD154B1B781BB18E
:1019C0000120FFF73DFFF5E7124B1B889BB2002B70
:1019D000E1D0FFF77FFFEDE70020E9E70020F0E727
:1019E0000D48D2E70D480E49A3F110020F2BD8BFC6
:1019F00001460C48FFF7C4F9CDE700BF00ED00E059
:101A0000D6AE0000EEAE000010AF000028ED00E002
:101A100029ED00E02AED00E030AF0000A8AE0000A4
:101A2000BDAE000067AF0000024A536943F01003E7
:101A30005361704700ED00E043B2002B08DB012248
:101A400000F01F0002FA00F05B09024A42F823008E
:101A5000704700BF00E100E043B2002B0DDB012224
:101A60005B0900F01F0002FA00F02033034A42F83D
:101A70002300BFF34F8FBFF36F8F704700E100E08B
:101A80004209054B00F01F0053F82220012303FAFE
:101A900000F01040704700BF00E100E043B2002BAF
:101AA000A8BF03F1604301F101014FEA4111AEBF4C
:101AB00003F5614300F00F00034BC9B2ACBF83F8DC
:101AC00000131954704700BF14ED00E000F042B855
:101AD00008B572B6044BD86918B10022DA6107F074
:101AE000B3FF62B608BD00BF2C130020F8B50C464A
:101AF00016461F4604220A9B0999054608F078FFFE
:101B0000A6F1200121440C4A21F00701002322F014
:101B10000102C5E91433C5E917468A61069A4A608D
:101B2000079A8A60089ACA604FF080720F60CA6193
:101B3000E964AB66F8BD00BF8D06000001491022C4
:101B40000A60704710ED00E0404080F3118830BF1C
:101B5000704700BF404080F31188DFF81CC0DCF8FC
:101B600000C01CF4006C0CBFEFF30880EFF3098099
:101B700000B5FFF7F3FE00BD04ED00E038B5044604
:101B80000D4605281AD8DFE800F0031919131517B8
:101B90000D48FFF7F5F808F04BFCAA6901460B4821
:101BA000FFF7EEF829462046BDE8384000F01CB8A3
:101BB0000748EEE70748ECE70748EAE70146074829
:101BC000FFF7DEF8E7E700BF0CB10000AAB10000A4
:101BD0002CB1000052B100006CB1000087B10000D0
:101BE00001460068FFF7CABF052810B50CD008F001
:101BF00019FE60B108F016FE0C490D4B002808BF15
:101C000019460C48FFF7BCF8FFF79EFFFCE708F009
:101C100019FE0028EED1084C0848A168FFF7B0F87B
:101C2000A068BDE8104000F00BB800BFE6B10000AE
:101C3000EAB10000FBB100002C1300201BB2000031
:101C400038B505464FF02003EFF3118483F3118874
:101C500008F064FE0B4B9B68AB420DD10A4B5A68EF
:101C6000C2F3080222B908F061FB2046FFF758FDD5
:101C70005A6842F080525A602046BDE8384008F069
:101C800007BA00BF2C13002000ED00E000B572B6CB
:101C90000B4AD06900281EBF0021D16107F0D4FE95
:101CA00062B6EFF30580A0F110004FEAC0000549CD
:101CB000014409C998475DF804EBFFF711BD000026
:101CC0002C130020DC000000202080F3118806483F
:101CD0004FF40061401880F30988022080F31488D3
:101CE000BFF36F8F00F006B8E020002030BFFFF791
:101CF000FDBF00BF08B5074B074A23F07F03936081
:101D0000BFF34F8FBFF36F8F07F0CEFE07F0D6FE05
:101D100007F0F8FE0000000000ED00E008B5FFF756
:101D2000E5FFBDE80840FFF7DBBC0000034B0522E0
:101D30005A60BFF34F8FBFF36F8F704790ED00E095
:101D4000114A10B51468082C1BD81049506800239C
:101D50004B609C4200F10C0003D1FFF7E7FF00202D
:101D600010BD8B6050F80C2C22F01F0242F01002C4
:101D70001A43CA6050F8042C42F001020A61013390
:101D8000E7E74FF0FF30EBE7E02C002090ED00E0BC
:101D90000139034611F8012F0AB91A70704703F888
:101DA000012BF7E70138013910F8013F11F8012F35
:101DB000934202D1002BF7D11A46981A704710B5FA
:101DC0005AB10139841810F8012B11F8013FA042D3
:101DD00001D09A42F7D0D01A10BD1046FCE7F0B5FA
:101DE00081EA0004A50703460BD0013B0A44914257
:101DF0001DD1F0BD002AFCD011F8014B03F8014BB6
:101E0000013A9C07F6D11D1F0C468F183E1B032E6E
:101E100008D894086FF0030505FB0422A4002344AE
:101E20002144E2E754F8046B45F8046FEEE711F83B
:101E3000014B03F8014FDAE7F0B5C9B203469C073E
:101E40000FD141EA012444EA04441D469F187E1B39
:101E5000032E0CD8940803EB840413449C4209D14C
:101E6000F0BD002AFCD003F8011B013AE7E745F872
:101E7000044BECE704F8011BF0E74FF0FF3070472C
:101E8000014B1860704700BF082D0020BFF35B8F27
:101E900050E8003F43EA010240E8002CBCF1000F8B
:101EA000F6D1BFF35B8F18467047000070B5064649
:101EB00088790D4607F0F6F80E4B834219D1284673
:101EC00007F0F6F8284607F0F3F80B4C04EBC000D7
:101ED000436873B1284607F0EBF804F830602846F1
:101EE00007F0E6F804EBC000BDE87040406808F079
:101EF000AEBA70BDEC2F002020040020074BBFF3CA
:101F00005B8F024653E8000F00EA020143E8001C21
:101F1000BCF1000FF6D1BFF35B8F7047802D00201E
:101F2000054BBFF35B8F1B6FBFF35B8F43FA00F072
:101F300000F00100704700BF102D00202DE9F04790
:101F4000804689461348144D4FF0FF3107F03EF9A3
:101F5000044600F1080600213046002707F03CF94E
:101F60002775204607F0A4F805EBC000A0F8028012
:101F7000204607F09DF805EBC0000321476030467E
:101F800007F06EF980F80290A0F800802046BDE8C6
:101F9000F08700BFEC2F00202004002070B515460C
:101FA00086B00C4619B9FFF7C9FF044668B3012291
:101FB0000021684608F042FA204607F079F8144EEE
:101FC00006EBC000C0F804D0204607F045F92146D2
:101FD000104807F005F942F21071684608F05EFA01
:101FE000204607F065F816F8300030B1204607F0BB
:101FF00005F96FF0040006B070BD0DB12C60FAE772
:10200000204607F0FBF82846F5E76FF03600F2E7C8
:1020100020040020B42D002070B5154D062205F1D6
:1020200008010646FFF7CBFE0446D8B1062142F26E
:102030000500FFF783FF0446B0B1062231460830A1
:1020400007F014F92146002242F20500FFF7A6FF2F
:10205000044638B90622314605F10800FFF7BFFEF5
:102060000123EB71204670BD6FF03604FAE700BF24
:10207000102D0020012310B50621044600F8013B75
:1020800006F030F818B9A37963F03F03A37110BDCF
:1020900038B50C4D2B78012B10D1AB7903F0C00370
:1020A000C02B0BD1681CFFF7B7FF044620B90421F1
:1020B00005F17000FFF7EAFE204638BD6FF0150409
:1020C000FAE700BF102D0020F0B5BB4DD5F8B430B5
:1020D000996811F0010187B021D104AA40F60340AC
:1020E000FFF75CFF044600287AD1049B9B681B78AD
:1020F00093B9BFF35B8F2B4653F8702FBFF35B8F01
:1021000002F00D02BFF35B8F53E8001F43E800208D
:102110000028F9D1BFF35B8F049807F06FF804AA89
:10212000002141F20300FFF739FF0446002857D190
:10213000049BA248996808220131FFF750FE0498D9
:1021400007F05CF8214604AA41F20100FFF726FFE0
:102150000446002844D1049883685A78AA73D97831
:102160009A7842EA01222A821A79EA73197ADA798C
:1021700042EA01226A825A799B7942EA0323AB82BE
:1021800007F03CF80320FFF7CBFE014688B904AA0C
:1021900041F20900FFF702FF044608BB049B884890
:1021A000996806220131FFF71AFE04982C7007F097
:1021B00025F804AA002141F20200FFF7EFFE0446D1
:1021C00070B9049B7F48996840220131FFF707FEF0
:1021D000049807F013F8AB7E580604D46FF012048D
:1021E000204607B0F0BD214604AA42F20300FFF7E3
:1021F000D5FE04460028F3D1049B73489968082251
:102200000131FFF7ECFD049806F0F8FFAB7E99066C
:1022100040F1908095F83A301A0700F1A780082124
:1022200042F20100FFF78AFE0446002800F0898090
:102230000821084407F014F895F8403003F006032D
:10224000062B14BF02234FF4C173002203701B0A34
:1022500043708270C270027142718271C2712146F4
:1022600042F20100FFF79AFE04460028B8D1082187
:1022700040F60140FFF762FE0646002861D00821C3
:10228000084406F0EDFF80234370022720230470EA
:102290008470047144718471C770C37122463146E1
:1022A00040F60140FFF77AFE0446002898D1014627
:1022B00004AA4FF60140FFF771FE20BB049806F018
:1022C0009DFF04AA21464FF60240FFF767FED0B9F2
:1022D000049B3E4899683A460131FFF780FD049817
:1022E00006F08CFF04AA21464FF60340FFF756FE86
:1022F00048B9049B3648996801221144FFF76FFDE5
:10230000049806F07BFF0023072202A92A480293C3
:10231000CDF80B30FFF753FD00283BD195F8603026
:10232000DB0759D42448FFF7A5FE044600287FF4B4
:1023300057AF67E0022140F66D40FFF7FFFD06460C
:1023400010B96FF036044BE70221083006F088FF21
:102350000123447003702246314640F66D40FFF77A
:102360001DFE044600283FF455AF39E704AA0021BA
:1023700042F21C00FFF712FE044600287FF430AF43
:102380000498836853F8012F5B68C5E9202306F0A1
:1023900035FF44E70F4B18689A8804909B79ADF895
:1023A000142004A9072204488DF81630FFF707FD12
:1023B0000028B3D014E700BF102D0020262D0020E8
:1023C000112D00202E2D0020882D00206F2D0020A3
:1023D0006E2D002058AD000001AA00214FF60940E3
:1023E000FFF7DCFD00289DD1019881684B786BB127
:1023F00001230622023107482B70FFF7F0FC0198F9
:1024000006F0FCFEFFF744FE0446E9E606F0F6FEA1
:1024100088E700BF112D002010B5FFF755FE0446D8
:1024200018B902210548FFF731FD054B1B681BB1A8
:102430002046BDE81040184710BD00BF802D002089
:1024400078040020F8B5067D012E04464ED1876839
:102450003B780E3B012B05D8404080F311884FF0AC
:10246000040002DF00F108050221284606F007FFFC
:102470003B783E2B09D1A7683146284606F0FFFE7F
:102480003B78082B06D0092B22D0204606F0B6FE5A
:102490000020F8BDA6686FF02000FFF72FFD33780D
:1024A00043B9711C40221448FFF799FC10211348CE
:1024B000FFF7ECFC124B1D68771C002DE5D032783D
:1024C0002B68002A0CBF3846002098476D68F4E757
:1024D0000C4D2A68002AD8D0A068037823B90130AF
:1024E000904700232B60D0E70020F9E706F086FE36
:1024F0006FF01500CDE700BF34040020802D0020D0
:102500007404002030040020F8B5037D8668012B98
:10251000044605D0404080F311884FF0040002DFEC
:102520008389012BF6D933780E3B012BF2D800F1C9
:1025300008050221284606F0A2FE33780E2B05D0AE
:102540000F2B17D0204606F059FEE3E7A3680321BE
:1025500028461E7806F093FEA36821461878FFF7F8
:10256000A5FC16B10A4807F072FF204606F046FEA9
:102570000020F8BDA66804217778284606F07FFE83
:1025800021463078FFF792FC002FEED0EAE700BF3B
:10259000982D0020084AD2F8B4303BB9C16841B147
:1025A000016931B1C2F8B400184670476FF04400B9
:1025B00070476FF015007047102D002038B50546A4
:1025C000054806F003FE044620B10021083006F05D
:1025D00003FE2575204638BD0C30002010B501469D
:1025E0004FF02003EFF3118083F311880B4A00238F
:1025F000D2F8A040C2F8A03080F3118824B901209D
:10260000BDE81040FFF7DABF012204F1080022758F
:10261000A381194606F0E0FD204610BD102D0020D4
:10262000F7B51860C31D23F003030E461A80013A64
:1026300094B205460422002106FB0400FFF7FCFBD0
:102640004FF6FF77013CA4B2BC4201D103B0F0BD0C
:1026500004FB06602B180422801B0DEB02012844AA
:102660000193FFF7BCFBEDE773B5046806468CB138
:10267000E31D23F00303042221460DEB02001D8815
:10268000FFF7ADFB019B23B1DA1D22F00302013DF0
:1026900015803360204602B070BD70B50C680646E8
:1026A0000D461CB1E31D23F003031C8804222946B8
:1026B0003046FFF794FBF21D22F00302631C1380E7
:1026C0002E6070BD02FB01007047401A80B2B0FB63
:1026D000F2F0704710B5114401384FF6FF73013A1C
:1026E00092B29A4200D110BD11F8014D00F8014F8D
:1026F000F5E710600860704710B514682060146832
:102700006160106010BD884203D01AB14368136045
:102710007047002070470B68834207D00AB15868A1
:1027200010600BB11A680A60184670470023FBE777
:102730002DE9F047114FDFF848900426013EF6B22C
:10274000FF2E19D033B24FEA830803EB43031D0178
:1027500004244FF00C0A0AE01AFB04510A1D04EB92
:1027600008003A44394409EBC000FFF7C2FF013CBE
:10277000E4B2FF2CF0D1E1E7BDE8F087FC040020D3
:102780007C040020F0B4124B05460F460C26302482
:1027900072B1614306FB00142344597A187A8142CE
:1027A00004BF0131197228463946F0BC06F0E6BB79
:1027B0004C4306FB004423449C7ADA7AA24204D1BB
:1027C00001329A72F0BC06F007BCF0BC704700BF43
:1027D000FC040020F8B505460E461C468AB10123CC
:1027E00062782078801A10F0030729D003B3012FF4
:1027F00039D00132D2B222703146284606F0ECFBC5
:102800001CE006F0D7FB0028E9D03146284606F048
:10281000C3FB0028E3D030230C22734302FB0533B3
:10282000124A1A44937AD27A9B1A18BF0123D7E727
:102830000232D2B22270D4E9020398470020F8BDD8
:10284000002BF8D00132D2B222700423302212FBC6
:1028500006320C2313FB0523044A60681A44214600
:10286000FFF74AFFC8E73846E9E700BFFC0400204D
:102870002DE9F04F00EB400389B01B014FF0000839
:10288000434E049305460424CDF80480013CE4B291
:10289000FF2C0BD1019B002B72D0B8F1000F6FD130
:1028A00042462946284606F069FB69E00DF1200BF7
:1028B00000230C274BF8043D4FF0300907FB04F3CD
:1028C00009FB053031185A46496830580293FFF722
:1028D0001AFF049B17FB0437F31982460393BAF1DE
:1028E000000F32D0079B1F785A78BF1A07F00307F2
:1028F000012F04D1013A5A70D3E902029047079A96
:1029000013785278DBB29A1A02F00302012A059377
:102910000DD0029B039909FB05303044002240682A
:10292000FFF7F9FE079A059BC2F804A05370029BBB
:1029300009FB0533F1185A464968F058FFF7E3FEE2
:10294000012F8246CBD1BCB9B0B930220C236A43E7
:1029500003FB04223244917AD07A884213D1302288
:102960006A4303FB042333441A7A597A91421CBF09
:102970005A724FF0010889E72946284606F02CFBD9
:1029800009B0BDE8F08FD17201220192E7E700BFE4
:10299000FC04002010B5421E00200139C9B2FF29F5
:1029A00000D110BD12F8013F002BF6D05C1E0130A3
:1029B0002340C0B2F8E7F0B5427F046806461346EC
:1029C0000020FF2A01D10020F0BD02EB820504EBBC
:1029D000C5078A42D7F808C014F83550604402D0C1
:1029E00013462A46EDE7934200D175771BB203EBFD
:1029F000830304F833503B78FF2BE5D003EB8303CC
:102A000004EBC304A3686344A360DDE730B5551A43
:102A100015F4000F8368446909D125F07F421A44F8
:102A2000A2420ED9121B00248260446130BD8A1A72
:102A300022F07F42934201D99A1AF1E72244D41A34
:102A40000022A41A0022EFE7034600221A709A6AB5
:102A5000596208460AB1D96A104770472DE9F04714
:102A6000857F01230446C3771DB9437FFF2B02D125
:102A7000C577BDE8F08705F021FE6769667FD4F869
:102A80000080C71B27F07F47FF2E06D006EB860687
:102A900008EBC6018B689F4218D2A27AE37A934270
:102AA00005D10133DBB2022B08BF0023E372E37AC6
:102AB00004EB83030122DD60656A0023E377AC4603
:102AC000234604210320BDE8F0476047FF1A1D4458
:102AD0008A784B7818F836609B1ADBB2012BD3D179
:102AE000D1F80C90013A8A70B9F1000FCCD0486946
:102AF0006369CA8B281A184420F07F400B69496A21
:102B0000C847C1E72DE9F04FC27F93B08346002A42
:102B100040F0A883436904930121837A8177C07AC6
:102B2000984200F08C800B44DBB2022B08BF0023DC
:102B30008BF80A300BEB83030191D3F80C80049BD4
:102B4000434423F07F43CBF814309BF81D300393AC
:102B5000DBF800300593DBF804300B939BF8093069
:102B60000293002307934FF0FF0A029B013BDBB265
:102B7000FF2B029366D19BF81D30039A9B1A18BF56
:102B800001230293019BCBB1DBF8009000279BF857
:102B90001D50FF2D0BD02EB206EB860609EBC604A6
:102BA000A368434540F23281A3EB0803A360DDE94B
:102BB00001230399A94218BF13460293DBF80030A2
:102BC0000893DBF8043010939BF809300193019BC4
:102BD000013BDBB2FF2B019340F068819BF81D3075
:102BE000039A9342079B40F032834BB9DBF80430E1
:102BF0009BF809400193013CE4B2FF2C40F09C8219
:102C000000238BF81E30029B4BB19BF81D30FF2B2D
:102C100040F0E18205F03AFD08B9CBF818009BF8C6
:102C20001F30002B00F01E83DBF824405B4601229E
:102C300003210420A44613B0BDE8F04F6047019281
:102C4000904682E70B9B029A03EBC2077B680693D0
:102C5000F978BE788E4288D0069B387806EB46021B
:102C600012019D18731CDBB2984208BF0023BB7091
:102C7000069B9A5C032AECD9697801EB81030A93DD
:102C80000A98059B03EBC004052A6378A078A3EBA0
:102C90000003DBB20AD84BB1042A0CD16A6852B9DE
:102CA000AA6842B9EA6832F07F4204D1012128467D
:102CB000FFF7CAFECCE7012B40F09D805846FFF796
:102CC0007AFE2B78A060042B064640F08680DBF865
:102CD0001430089305F0F2FC089B0990C31A23F006
:102CE0007F4343449E4202469EBF6269921B9B18EB
:102CF000626896BF6361F31A0023002A49D0A9894C
:102D0000002946D001F1FF3C1FFA8CFCA5F80CC04D
:102D10009A42B4F81EE001D2F44502D3DFF874926F
:102D200031E0616A994E9A488E19864281BF01F15D
:102D3000E87101F5D43101F5A5716162D4E9081695
:102D40008CBF4FF001094FF00009761A91440EF143
:102D5000FF3E6662A3EB0903A4F81EE0D8E7D4E9BE
:102D600008160E4489498A48711881428EBF002195
:102D700001214E4411440EF1010E8CBF6662666261
:102D80000B44A4F81EE0B4F81EE0F445E7D8A4F81C
:102D90001CC0AA881344A360EA8863691344636172
:102DA000DDE908122046FFF731FEA2692B891344A2
:102DB0006A89A36193428CBF9B1A0023A361AB7BFA
:102DC00003B1E370059B0A9A03F832A0637895F883
:102DD00001A001336370002169E7A37863706B7809
:102DE0009BF81C209A4201BFFF238BF81C30002364
:102DF000CBF81830EFE704215B46DBF824400122D2
:102E00000846A0470123BE700793AEE6DBF8182002
:102E10009342A8EB03081F4429BFFF23D31A8BF862
:102E20001C300023CBF81830A3691BB18BF81C5061
:102E3000CBF818300022A26019F836308BF81D301C
:102E4000D4F804C0BCF1000F2CD0A08BDFF840E117
:102E5000D4E908130B444D49591871459FBFA3F19C
:102E6000E873A3F5D433A3F5A573636292BF019B06
:102E700063620023634410F1FF301A44E8D2049BDC
:102E8000A260DBF81410DA192046FFF7BFFDA38B10
:102E9000E3830023E37009F836A06378013363709D
:102EA000AA4674E6A37863705546F9E7109B019A29
:102EB00003EBC20304935B680A93049B93F80190AD
:102EC000BAF1FF0F40D00FFA8AF303EB8303089A9D
:102ED000D04612F833A002EBC3040025DBF8003023
:102EE0000B93FF232370A28BE38B934240F28080ED
:102EF0009B1A9BB20C930FFA88F303EB8303DB005E
:102F00001193C8E009EB49030A9A1B01D51809F18E
:102F100001025FFA82F9049A12784A4508BF4FF01D
:102F200000090A9AD35C032B0ED195F80180089B07
:102F300008EB880403EBC4046278A3789A4208D0B3
:102F400001212846FFF780FD049B9B784B45D9D192
:102F50003DE6EB68DBF8141063602B692362AB8AF3
:102F6000A383AB69A361EB69E3602B6A236100264D
:102F7000AB68A36066616A682046FFF747FD0123DE
:102F80006662E683E3704FF0FF0AA7E75A2B17FF4C
:102F9000592B177FB6562EFE6068002800F0C780B8
:102FA000D4E90812B14B0A44B149D3188B429CBFF3
:102FB000A2F1E872A2F5D432A3688BBF6262A2F5D7
:102FC000A57200226262034498BF01221344E28B7F
:102FD000A3600132E283626993424FF0000189BF2E
:102FE0009B1AD31AA36061619CBF6361A16052E028
:102FF00000237FE7B669091A46B9059FB84200D297
:103000003E1A0993059612F83E3053E00693F8E70E
:1030100030B200EB800002EBC0070E97BF680F973D
:10302000774509D20E9FBF69002F54D10F9EAEEB9A
:10303000060E12F830604CE0FF264CE0069B9845E7
:103040006AD0069BFF2BA7D01E4633B203EB830347
:103050000593059A0B9B03EBC207FB8BBA8B93423C
:1030600088BF9B1A7A688CBF9BB20023002A93D03A
:103070000C9A934290D8FA78E3789A428CD23146EF
:103080005846FFF798FCBB787B70059A0B9BB8609D
:1030900003F832A0B246119BDBF80020DBF81800E1
:1030A000059002EB030CFF209BF81D30DCF80810A4
:1030B00009930690FF2B06D003EB830E02EBCE069E
:1030C000B068814296D8DCF818000D9001EB000E34
:1030D0001E46FF2E9CD10D9828B105988142ADD394
:1030E000FF2E40F0BB800998CCF80810834218BF2F
:1030F000BDF924008CF8003016BF00EB80008BF87F
:103100001D8002F83080FF2B06D003EB830302EB17
:10311000C3039A68511A9960A37801336370002140
:10312000002D3FF4CDAE2846FFF78EFCC8E6012106
:10313000F6E70123029359E5019B03EBC4056E6892
:103140006B78EA789A423FF456AD03EB43031A01D9
:10315000B318B25C012A24D0022A29D1D3E9019004
:1031600099F80020D3F80CE0DBF800C0DBF814106D
:10317000FF2A02D00768B94223D09BF81D200160C6
:103180000021FF2A09D002EB82080CEBC80ADAF80A
:1031900008000144DAF81800D0B189F80020CEF810
:1031A000001000225A629A6A12B1D96A0020904730
:1031B0006B782A780133DBB29A4208BF00236B7028
:1031C000BEE702EB8202DEF800101CF83220D8E7DE
:1031D0001CF83820D5E7039BFF2B07D105F06EFACA
:1031E000044605F045FA08B9CBF814409BF81D30A9
:1031F000DBF8002003EB830302EBC3030A269D6880
:1032000005F05CFADBF81440031B23F07F43033323
:10321000AB422CBFE418641924F07F440746DBF866
:1032200028302046984705F049FAC01B20F07F401F
:10323000E41B033024F07F44A0427FF6F0AC013E53
:10324000DED1404080F311884FF0040002DF002BF4
:103250003FF46FAF00238BF81E30D6E4B0457FF407
:10326000F4AE59E713B0BDE8F08F00BF5A2B17FF3B
:10327000592B177FF0B51C4E059F9DF81840DDF8BF
:103280001CC02C25454306EB050E72518EF8081024
:103290008EF80930CEF80470013BDBB2FF2B13D15E
:1032A00004BB2C2358433318089A1A62099A5A62AD
:1032B00018300A9A9A6232184FF6FF713450918092
:1032C00020465C615C81F0BD1AB207EBC201C1F817
:1032D00004C017F8322002EB4201A41A0CEB011CC7
:1032E000E4B2D9E70120EEE7BC050020074A2C2113
:1032F00000FB012310B45C6A2CB1A4460122032117
:10330000022010BC604710BC704700BFBC05002005
:103310002DE9F041224C2C2700FB07480DB2D8F8CC
:10332000040000EBC50C10F835009CF80340661C47
:10333000F6B2B04298BF00269CF80100B0422DD0F2
:10334000DCF8040004EB4404250144194FF0030E9B
:1033500000F805E06360069BA360079BE360089BA1
:1033600023610A9BA361BDF82430A3820B9BE36118
:103370000C9B2362022363620D9BA3620E9B62700F
:10338000E3628CF80360D8E908350846984743465D
:1033900000220421A847606ABDE8F0810120FBE714
:1033A000BC0500202DE9F843224C2C2700FB0749DF
:1033B0000DB2D9F8040000EBC50C10F835009CF8EC
:1033C0000340661CF6B2B04298BF00269CF801008C
:1033D000B0422DD0DCF8040004EB4404250144196C
:1033E0004FF0040800F80580A380BDF82030E3808A
:1033F000BDF824302381BDF828306381BDF82C301E
:10340000A3819DF83030A373022363620D9BA362F6
:103410000E9B6270E3628CF80360D9E908350846B8
:1034200098474B4600224146A847606ABDE8F883AA
:103430000120FBE7BC0500202DE9F0411A4C2C26A9
:1034400000FB06480FB2D8F8040000EBC70C10F8D8
:1034500037009CF80340651CEDB2A84298BF0025D8
:103460009CF80100A8421CD0DCF8040004EB4404E2
:10347000240107194FF0050E00F804E07A700222CB
:10348000C7E90923069BFB628CF80350D8E908348E
:1034900008469847434600220421A047786ABDE8C1
:1034A000F0810120FBE700BFBC0500202DE9F041C1
:1034B0001C4C2C2700FB07480DB2D8F8040000EB89
:1034C000C50C10F835009CF80340661CF6B2B042FB
:1034D00098BF00269CF80100B04221D0DCF804E03F
:1034E00004EB440425010EEB050402200EF8050050
:1034F000C4E90123069BE360079BA362FF25089BA9
:1035000065706062E3628CF80360D8E908350846AC
:103510009847434600220421A847606ABDE8F0812D
:103520000120FBE7BC0500202DE9F0411A4C2C26B8
:1035300000FB06480FB2D8F8040000EBC70C10F8E7
:1035400037009CF80340651CEDB2A84298BF0025E7
:103550009CF80100A8421CD0DCF8040004EB4404F1
:10356000240107194FF0010E00F804E0FF207870E5
:103570000220C7E90902FB628CF80350D8E908343D
:1035800008469847434600220421A047786ABDE8D0
:10359000F0810120FBE700BFBC0500202DE9F041D0
:1035A000084C2C2505FB0043D3E90837064608469E
:1035B000984706FB0543BC4600220421BDE8F041C4
:1035C000604700BFBC05002005F078B8401A20F025
:1035D0007F40704708B50346012B08460ED833B12B
:1035E00019B106220649FEF7FAFB054807E019B1B2
:1035F00006220449FEF7F3FB024800E0002008BD64
:103600001A0600201406002070B506460D4603F089
:1036100015FC044610B10C24204670BD03F022FCBA
:1036200010F0060FF7D1062229461EB10248FEF718
:10363000D6FBF1E70148FAE71A060020140600203D
:10364000002303700B70704720BF40BF20BF70473E
:10365000F0B50D4B89B005460E4601AA03F11807D7
:1036600018685968144603C40833BB422246F7D190
:103670001B88238008AB1D4415F81C0C831B584283
:10368000584109B0F0BD00BF5FAD00000860704751
:10369000024B1868436800211B6818472006002069
:1036A00018B90B6843F000430B60704718B90B68FA
:1036B00023F000430B60704770B5031D451E0024C6
:1036C0009D4201D1204670BD15F8016F0022A0185F
:1036D000082AC0B201D10446F2E716F0010F03D068
:1036E0000029F0D00139C9B276080132EFE70000B5
:1036F00010B50C4A92F83A3192F839118B4238BF22
:1037000092F8384192F8391138BF1B195B1ADBB2B5
:1037100098429BBF92F83911D2F83431002053F807
:10372000210010BD2006002030B590F85C3090F8E4
:103730005D10994228D190F91D30002B26DBC48CF6
:10374000828CA0F86440C48DA0F8622054437D228E
:1037500062434FF47A7492FBF4F2A0F8662090F87A
:103760006020012565F30102D2B2002342F0040279
:10377000013980F87050C36680F8602080F85E5090
:1037800080F85D10184630BD0120FCE70220FAE702
:103790002DE9F84F0C78944281460F4690463DD073
:1037A0001F4ED6F8683133F83430038000254FF0CF
:1037B000020B06F5AE7A22B2D6F86801B9F800C05D
:1037C00000EBC20130F83220944520D1486801282E
:1037D00020F003030AD9F3B1021D1CD04279D2B103
:1037E000027902F00302013A012A14D80122154499
:1037F0004A60EDB213B15146FEF74FFF013496F81F
:103800006C21E4B2A24208BF00244445D3D13C70ED
:103810002846BDE8F88FC1F804B0EBE70025F7E7CC
:103820002006002010B5094B93F81021824204466F
:103830000AD902464FF48271D3F80801FEF742FF1D
:1038400010B1038CA34200D0002010BD2006002040
:103850002DE9F04186B00223052805460F46029364
:103860000ED0062800F08D8040F28580073880B2A7
:10387000FFF7D8FF002800F0D680D0E900680FE0FD
:103880006A4BD3E9066802AB00930A46684B0321F2
:103890000020FFF7D1FD022866D0029B002B67D1E4
:1038A000624CE37C03F0FF00002B64D106AB0222E4
:1038B000E57443F8102D032100932A465C4BFFF773
:1038C000BBFD022861D0029B002B45D1637CAB423B
:1038D00002D0A37CAB423BD106AB022243F80C2DB5
:1038E000002200930321524B1046FFF7A5FD02284A
:1038F00007D1012211460320FEF744FF039B022B50
:1039000039D0039800285CD102230493637C002BF8
:1039100031D004AB00930122454B60740321FFF7C3
:103920008BFD022807D1012211460320FEF72AFF52
:10393000049B022B1FD0049A002A34D126F00046A3
:10394000B0453CD93B4B11460320FEF743FF90B9ED
:10395000E37C0BB9012302930023E374029806B0C1
:10396000BDE8F081FFF770FE029B022BFAD094E7CE
:10397000029B012B94D0404080F311884FF004004B
:1039800002DF2A4BD3E934688AE7A37CAB4204D137
:10399000012211460320FEF7F5FE029B022B92D175
:1039A000FFF752FEF9E7049B012BE4D100221146F8
:1039B000204B0320FEF70EFF02460028DBD11E4BF2
:1039C000C1E7039D012DD6D1FF2F19D006AB0222EE
:1039D00043F8042D032100933A46154B0020FFF7CE
:1039E0002BFD022807D12A4629460320FEF7CAFEEE
:1039F000059B022BBFD0059B13B1059B012BBAD1B0
:103A0000237D002BA4D00D4B04229A600022114686
:103A10000320FEF7DFFE0028ADD1237D002B97D0D9
:103A2000FFF712FEF9E7012099E700BF200600200A
:103A30008D360000082E0020A82E0020382E0020F1
:103A40002DE9F04F8BB00024FF25DFF814918DF89D
:103A50001F50804693461F4601F1040A1C600894DB
:103A600026460223099309AB02933B4B019308AB13
:103A700000930DF11F025B4641460020FFF716FD43
:103A800002280BD0099B6BB1404080F311884FF0A6
:103A9000040002DF41460020FFF780FD099B022B56
:103AA000F8D0EFE79DF81F20FF2A4DD0062AD8D97D
:103AB00099F8103107339A42D3DA073A92B24FF4A9
:103AC0008271D9F80801FEF7FDFD0028C9D090F9F0
:103AD0001D30002BC5DBD0E9003C002B089A12DA20
:103AE000816823F000438C452CBF62445218D21ADF
:103AF000C168FF2D01F104010B4408D19DF81F504E
:103B00001C461646ADE7634538BF6346F0E73146CD
:103B1000104605930492FFF759FD04EB0A01884211
:103B2000DDE90423EAD90D483444A4FB000107234E
:103B300003FB041106A3D3E90023FCF7BBFB803091
:103B400038600BB0BDE8F08FFF2DECD1F9E700BF76
:103B500000CA9A3B000000008D3600008D49FD1A16
:103B60002006002070B504780A78C4F38013B3EB04
:103B7000D21F19D104F00F04012C00F1020501F14C
:103B8000080608D0062231462846FEF718F9B0FA92
:103B900080F0400970BD062231462846FEF70FF935
:103BA0000028EFD12046F5E70020F3E70B4A92F812
:103BB000783192F8791199420ED192F8783102EB6E
:103BC0004303A3F8720192F878310133DBB2032B7F
:103BD00008BF002382F87831704700BF200600201C
:103BE000404080F311884FF0040002DF08B508B1AF
:103BF000FFF7F6FF08BD0000012808B5094B07D103
:103C0000DA7C052A02D10022DA7408BDFFF7E8FF4A
:103C10005B7C052BF9D1404080F311884FF0040004
:103C200002DF00BF20060020012808B5094B07D19C
:103C3000DA7C062A02D10022DA7408BDFFF7D0FF31
:103C40005B7C062BF9D1404080F311884FF00400D3
:103C500002DF00BF2006002008B528B1034BDB7C43
:103C6000052B01D0FFF7BCFF08BD00BF20060020D8
:103C700008B530B1034BDB7CC9B2994201D0FFF7E4
:103C8000AFFF08BD20060020044B5B7D23B101215E
:103C900000220846FEF776BD704700BF20060020D0
:103CA000062810B50C460AD9094BC21F92B24FF430
:103CB0008271D3F80801FEF705FD206010BD0528CC
:103CC00004D00628034818BF0020F7E70248F5E7AC
:103CD00020060020F00600203806002008B50A4B18
:103CE00000221A70094BA3F11001012818BF0B46DE
:103CF0001146FEF76FFD28B1404080F311884FF068
:103D0000040002DF08BD00BF28080020882E002024
:103D1000002208B51146044B1046FEF75BFD08B1C2
:103D2000FFF75EFF08BD00BFD82D0020002208B5B8
:103D30001146044B1046FEF74DFD08B1FFF750FF4A
:103D400008BD00BF582E002008B50A4A137838B1C4
:103D5000591C117063B90120BDE8084003F09CBBF9
:103D60000BB9FFF73DFF013BDBB21370002BF3D023
:103D700008BD00BFD40700200020FFF7E5BF00000A
:103D8000C0B208B5031F012B01D9FFF729FF084A6C
:103D9000537D13B1043B012B06D804F08BFE28B9E8
:103DA000BDE8084004F054BE5075F9E708BD00BFF7
:103DB0002006002038B505460C460021084604F0D0
:103DC000ADFD95F8A830DB064FF001020DD51F219F
:103DD000082004F0E9FD2246002105F1A90005F0C4
:103DE0001DF8BDE8384004F00DBE08201B2104F08A
:103DF000DBFD2046F5E7000038B5104A92F8703137
:103E000092F86C410133DBB29C4208BF002392F868
:103E10006F419C4201D1FFF7E3FE92F87051D2F856
:103E2000684124F8350092F8700104EBC004616029
:103E300082F87031BDE8384003F030BB2006002026
:103E40002DE9F047254D0646A846002795F86D3127
:103E500095F86E219A4236D095F86D91D5F864A107
:103E6000D5F808013AF839200AEBC9034FF48271FA
:103E70005C682760FEF726FC03463AF839001A8C86
:103E8000824222D1D3F8F82042B9D3F8EC20C3F80B
:103E9000F8401AB9C3F8EC40C3F8FC20D3F8FC2072
:103EA00002B11460C3F8FC4098F86D3198F86C21A9
:103EB0000133DBB2013E9A4208BF002316F0FF0631
:103EC00088F86D31C2D1BDE8F087237967F301032B
:103ED00023712146FFF790FFE6E700BF2006002090
:103EE00073B50122044611460020FEF74BFC94F8FE
:103EF0002020002142F24933073200930846374B15
:103F0000D2B2FFF799FA30F0020105D0404080F3B9
:103F100011884FF0040002DF314B5A7D052A1D46FF
:103F20001BD1228C587C0732904216D1597442F230
:103F30005A3300930122294B0846FFF77DFA30F0EF
:103F40000202E3D142F2613300931146234B104643
:103F5000FFF772FA30F00203D8D1D4E93B1399424B
:103F600003D0D4F8F830994201D11E4E10E00B79FD
:103F70006FF301030B710B68C4F8EC30208CFFF772
:103F80003BFFEAE703683146C4E93B33FEF785FBB4
:103F9000D4F8EC0018B1D4F8F8309842F2D10023EC
:103FA000C4E93C33D4F8EC1051B94FF6FF732384C5
:103FB000D5F88031A34208BFC5F8801102B070BDAA
:103FC0000B796FF301030B710B68C4F8EC30C4F884
:103FD000F830208CFFF710FFE4E700BFED3B000056
:103FE000200600207407002038B505460C46002145
:103FF000084604F093FC95F8A8309B064FF00102A8
:104000000CD51F21082004F0CFFC214605F1CA0081
:1040100004F040FFBDE8384004F0FABC08201B2142
:1040200004F0C2FC2046F5E7262810B504460BD064
:1040300027280BD025280BD1022004F085FC204630
:10404000BDE8104004F086BC1A20F6E75020F4E7E3
:104050000A2802D802304000EFE7272801D80330B1
:10406000F9E7FFF7BDFD000038B52A4C94F8783029
:1040700094F879209A4206D00133DBB2022B08BFB4
:10408000002384F8783094F8C83094F8C9209A4214
:1040900006D00133DBB2022B08BF002384F8C830FE
:1040A00094F878202A23272515FB0235601904F09F
:1040B000AFFC635D03F00F03022B23D0072B21D04D
:1040C00002239620637504F0ADFD002004F01AFD74
:1040D00094F82830C3F30202D3B21946002011F03D
:1040E000010F00F1010512D0013B134094F8282084
:1040F000C0B263F3020284F828202530BDE83840BE
:10410000FFF792BF0323637504F012FDE0E749084F
:104110002846E4E72006002073B5164602AA1C468E
:10412000054642F8046D27310120FFF789FC23681A
:10413000FBB10198831B1B0201D5FFF751FD3146EE
:10414000FFF744FA024610480723A2FB000103FBD5
:1041500002110BA3D3E90023FCF7ACF82368184441
:104160000028206005DB40F2E24068432368834278
:1041700001D802B070BD1B1A2360F7E7AFF30080CF
:1041800000CA9A3B000000008D49FD1A13B500F1EA
:104190006C030446826FC168808CFFF7BDFF02A9E3
:1041A000E36E606F40F2E242B3FBF2F3022221F8C9
:1041B000023DFDF714FE02B010BD00001FB53E4CDD
:1041C00020B1E37C052B75D0FFF70AFD637C052B3E
:1041D00002D0A37C052B65D104AB022243F8082D45
:1041E000002200930121354B1046FFF725F90228E4
:1041F0000DD00298C0B10298012819D1237D002B5F
:1042000050D02F4B04229A600022114646E0012232
:1042100011461046FEF7B6FA029B022BE9D10121A6
:104220000020FFF7BBF9F7E702230393637C2BB968
:10423000404080F311884FF0040002DF03AB0122FD
:104240006074114600931D4BFFF7F6F802280FD05B
:10425000039AD2B1039C012CEAD100221146194BDA
:104260002046FEF7B7FA02460028E1D1164B13E0CC
:10427000012211461046FEF785FA039B022BE7D177
:1042800001210020FFF78AF9F7E7A369E16923F02C
:1042900000438B42EAD20B4B11460120FEF79AFAFB
:1042A0000028C5D10022094B11460120FEF792FAE1
:1042B0000028BDD104B010BD200600208D360000BE
:1042C000282E0020F82D0020982E0020C82D002038
:1042D00070B5164C037894F8E120DB09B3EBD21FDC
:1042E00005460E4607D094F8E100C0F3011010F027
:1042F00002000BD170BD00F10801062204F1E200BA
:10430000FDF75DFD0028EED10120F3E795F90030BF
:10431000002B09DA6B7B03F0C003402B04D1002E85
:10432000F2D001203070E5E70020E3E7200600200E
:1043300010B5164A92F8393192F83A11994201D1E2
:10434000FFF74EFC92F83911D2F8343153F82110AE
:1043500092F8703108680B7092F8393192F8384150
:104360000133DBB29C4208BF002382F8393102F5E9
:10437000A472FEF7C1F928B9404080F311884FF0CC
:10438000040002DFBDE8104003F088B820060020DA
:1043900010B50120FFF7ACF9044608B9FFF720FC7F
:1043A0004FF6FF73C38006230371102200210B30E8
:1043B000FDF742FD3C23E372BDE81040FFF7B8BFB4
:1043C00003460A4600F19C01D0F89C0010B508B9DC
:1043D000FFF706FC1C8CA3F8A24083F8A420072456
:1043E0000A4A83F8A04092F8704183F89C4002F595
:1043F000A472FEF781F928B9404080F311884FF08C
:10440000040002DFBDE8104003F048B82006002099
:10441000404080F311884FF0040002DF70B506467B
:104420000320FFF765F9044620B34FF6FF73C380FE
:10443000114B93F8E1305A0718D0C3F30203DAB2F4
:10444000012A03D0042A02D0FFF7E2FF03232371DD
:1044500004F1080566B104F083FB00F07F00637A85
:104460001D44A870FFF764FF002070BD0223EEE733
:104470007F20F4E70120F8E72006002030B504682B
:10448000002C89B019DAD0E9013524F000449D42AE
:1044900034BFE41A641B0A4B0593A4B200230690B0
:1044A000CDE90333CDE9014318460094FEF77AFFC6
:1044B00030F0020301D0FFF793FB09B030BD00BF1D
:1044C000AD36000037B502AD104B45F8043D04464B
:1044D00004F00AFA002004F031FA0D4804F0CEF995
:1044E0000121204604F01AFA284604F045FA620039
:1044F00002F0FE022521082004F056FA054940F298
:104500005B6004F0E1FA03B030BD00BFD6BE898E17
:10451000595400005555550008B5054B00229860C8
:1045200011461046FEF756F908B1FFF759FB08BDD2
:10453000182E00202DE9F04F14681D688DB0002C56
:1045400081460B9190469B469DF85CA003DA169C31
:10455000AC4238BF2C46AC424E4F1BD941F28D5372
:10456000CDE907734C4B0021CDE90413631B009385
:1045700006914B46CDE90211019101220846FEF752
:10458000C7FE30F002032BD0404080F311884FF07B
:10459000040002DF1DD200231A4619461846FFF711
:1045A000B7FB41F2A253CDE907733C4B00212C1B12
:1045B000CDE9041306914B46CDE90211CDE9004146
:1045C00001220846FEF7A4FE30F00203DCD12C469F
:1045D0000BE000231A4619461846FFF799FB002303
:1045E0001A4619461846FFF7A1FB2D4E0B9BF360A8
:1045F00041F2BA53CDE90773199B06930022189B29
:104600000593CDE903224B46CDE9012200941146E2
:104610001046FEF77DFE30F00203B5D10520FFF70E
:104620007BFFD6F87C31AB4223D0CBF80030D8F8F2
:104630000030002BBCBF23F00043C8F80030D8F88E
:104640000020D6F87C118A4238BF0A4641F2E85170
:10465000A3B292B2CDE905710021CDE90123009208
:10466000CDE9031152460846FEF79CFE30F00203E6
:104670008AD1FF20FFF7E4FB0A4B012211460020FC
:10468000C3F808A0FEF7A6F800287FF47DAF0DB0B0
:10469000BDE8F08FED3B0000113D00002D3D000016
:1046A00020060020B82E00201FB50B4A537C03F0D3
:1046B000FF040BB1FFF794FA052353740394074CDE
:1046C000CDE90134136A009302F11C031832FFF79D
:1046D00031FF04B010BD00BF200600208549000056
:1046E00007B50520FFF718FF41F6F20300210093FC
:1046F0000522064B0846FEF79FFE30F0020301D06C
:10470000FFF76EFA03B05DF804FB00BFBD41000087
:104710002DE9F843214D95F83A4195F8383195F84F
:104720004C910134E4B2A34208BF002405F5A07700
:1047300005F59478B9F1000F03D095F839319C4212
:1047400001D1BDE8F8833846FDF78EFF0646002804
:10475000F7D04046FDF788FF28B930461049BDE83C
:10476000F843FDF79ABF066095F83A21D5F8343141
:1047700043F8220085F83A4195F838310134E4B223
:10478000A34208BF002495F84C3109F1FF39013BE1
:1047900085F84C315FFA89F9CCE700BF200600208C
:1047A0006007002010B52C4C94F81021002A37D057
:1047B00004F586734FF48271D4F80801FDF730FFD9
:1047C000264B94F83221B4F83011D4F82401FDF7C7
:1047D00027FF94F8381194F81021214BD4F83C01AC
:1047E0000A440821FDF71CFF1E4BD4F85001022299
:1047F0002421FDF715FF94F86C21D4F858011A4BC9
:10480000B4F86011013A92B2FDF70AFF1448FDF7BF
:104810002BFF40B9404080F311884FF0040002DFC5
:10482000C4F80C21CCE7114A111FFDF762FF94F880
:10483000293043F0380384F829304FF6FF73A4F889
:104840001A31A4F81C3142F21F53A4F81E31BDE8FE
:104850001040FFF75DBF00BF200600204807002082
:1048600060070020740700207C07002068070020F4
:1048700010B50B4B1A7C8AB901220A481A7405F04C
:10488000BDF8044618B9FFF7ABF9FEF7DDFE636823
:1048900001211B68204698470028F6D110BD00BFB3
:1048A000200600200CAE0000024B1868436800216F
:1048B0005B68184720060020F0B4484003274FEA01
:1048C000102C082600240CF00105013E45EA4405A1
:1048D00016F0FF06ECB24FEA5C0CF4D125022DB2C3
:1048E000C0B24FF0080C344600F0010646EA44041A
:1048F0000CF1FF3616F0FF0CE4B24FEA5000F3D192
:104900002C4304EB0414013F0C4417F0FF07A0B242
:10491000D5D125244140B1FBF4F004FB1010C0B206
:10492000C40800F00705145D2C41E40705D4594381
:10493000090C1046F0BCFEF7BFBEF0BC704700008B
:1049400070B514460E460546FEF73EFE2146FEF7BC
:104950003DFEC41C092C11D9094B1B7813B1002052
:10496000FFF7BCF9324600212846FFF787FDAB6808
:104970001C44262C00D8AC60012000E0002070BD53
:1049800028080020294B1A7D70B502F0FF0105466A
:104990001C462AB1404080F311884FF0040002DF2A
:1049A0005B7CDBB2052BF5D1A06094F829000126D1
:1049B00000F0070026756174A374FFF783FD94F877
:1049C000293094F82820C3F3C20363F3020284F869
:1049D0002820FFF749FB94F8293013F0C00F07D0C7
:1049E000304603F089FD821C4178007804F0D0F84D
:1049F000E26805F10901012004F020F904F0F0F962
:104A00002A4605210A48FFF79BFF034628B10423E5
:104A10006375BDE8704004F01BB8064A0146FEF716
:104A200083FD30F00203B5D170BD00BF2006002029
:104A300038060020893C000010B5044603F054FFFE
:104A4000002003F07BFF0A4803F018FF04F1100078
:104A500003F092FF637DA17D1B0243EA0143217DA8
:104A600040F25B601943BDE8104004F02DB800BF70
:104A7000595400002DE9F8431C46584B1A7D07464F
:104A800002F0FF061D462AB1404080F311884FF026
:104A9000040002DF5A7C238CD2B207339A42F3D14E
:104AA00003232B75A5F8186101236B75238DC5F8B9
:104AB0001441D2B26385A860268520466E74AA741C
:104AC000FFF7BAFF962004F0ADF833463246314680
:104AD000304604F023F895F83921D5F8343153F8ED
:104AE000221020460831FFF765F9637F580604F16C
:104AF00017024AD5608CE18B013803F03F0380B286
:104B0000FFF7DAFEFFF790FAD4E9112313440022ED
:104B10006264226CA364934288BFA264D4E9132325
:104B2000002613442365EA68E66407F1090130466C
:104B300004F084F8804604F01FF9304604F03EF992
:104B4000236DA26C78333146304603EB420903F003
:104B50006CFFC84431468044304603F068FF40444F
:104B600004F0ECF894F8201007313A46C9B2204618
:104B7000FFF7E6FE034640B304236B7503F068FFBE
:104B80000220BDE8F843FFF75BB9618DA67F01FB0A
:104B90000666E17F25200E4496FBF0F100FB1166CE
:104BA000F0B2C108E077515C06F0070641FA06F65C
:104BB000F10703F03F03A5D4B0FBF3F103FB1101B0
:104BC000C9B21046FEF778FD9CE7054A0146FEF79C
:104BD000ABFC30F002037FF457AFD1E72006002092
:104BE000893C000010B590F8A840D0F8F02014F0EF
:104BF000800F18D1D0F8EC30ABB1240713D4D0F823
:104C0000F840A34204BF1C68C0F8F84092B91A6883
:104C10000A601960C0F8F010C0F8F4100B680BB906
:104C2000C0F8FC1010BD2AB9D0F8EC300B60C0F809
:104C3000EC10EFE7D0F8F4301A680A601960EBE77F
:104C400010B490F8A84024070A460FD5D0F8F01009
:104C500031B9D0F8EC101160C0F8EC2010BC7047EE
:104C6000D0F8F430196811601A60F7E710BCFFF74C
:104C7000B9BF0000F8B5214F054607F5AA700E46EA
:104C8000FDF7F2FC0446B0B333797179D7F81421FB
:104C900043F07F4343F47E0343F4435343F0100354
:104CA00043EA0123B17943EA0143D2F88C10C1F3FE
:104CB00010010B40C2F88C3092F8383043F02003DA
:104CC00082F83830037943F0030303710822092383
:104CD0004371C37100211044FDF7AEF8D5F88C3054
:104CE00023721A0A1B0C28466272A3722146FFF730
:104CF000A7FF0020F8BD0120FCE700BF2006002030
:104D00002DE9F04F6F4D1C466B7C8FB08046894675
:104D10002BB1404080F311884FF0040002DF94F87B
:104D200020300733DBB26B7494F91D30002B09DAA5
:104D3000E36B616C02FB03330B44216C63648B42B5
:104D400088BF6164268D94F85C303244668C92B2E0
:104D50002285324496B294F85D209A4271D00520A3
:104D6000FFF7DAFB94F85E30013B032BD1D8DFE884
:104D700013F004002E027002B902D5F880310BB98D
:104D8000C5F8804194F8603013F0030300F0A6806A
:104D90004D48FDF769FC0546002852D094F8603074
:104DA00003F00302012AB4D16FF3010384F86030E9
:104DB000E38C0279063333449BB242F00302A4F839
:104DC000683002710C2242710022C27194F8702086
:104DD000027240F2E241E26EB2FBF1F2A0F8092069
:104DE000B4F86220A0F80B20B4F86420A0F80D20DD
:104DF000B4F86620A0F80F202268A0F81130002A2D
:104E0000C4F878800ADAD4E9011322F000428B4218
:104E10002CBF434408EB01039B1AA36705F1090368
:104E20002A4A63672A4BC3E9024201221146002045
:104E3000FDF7D0FC00287FF46CAF29462046FFF731
:104E4000D1FE94F8992094F898309A421DD005200C
:104E5000FFF762FB1C48FDF707FC0146A8B194F878
:104E6000983084F89930037943F0030303710223E7
:104E70004371C37194F89A3003722046FFF7B2FE73
:104E8000E38D012B98BF0133A38694F8203094F969
:104E90001D5010481049A268073331EA250128BF88
:104EA0000146DBB2CDE90023CDE90214231D2246E1
:104EB000494640460136FFF73DFB66840FB0BDE82A
:104EC000F08F00BF20060020740700208D410000F5
:104ED000482E0020754A0000616B0000B4F868702D
:104EE000F71BBFB23804ACD494F85C2084F85D2082
:104EF000D5F880216B74944208BFC5F88031A28C2C
:104F0000B4F862309A4214D1B4F86410E38C994238
:104F10000FD140F2E2435A43B4F8663042F21071C6
:104F200001FB0323013B93FBF2F3E28D9BB29A4218
:104F300016D00220FEF7DCFB00283FF4EAAE238CFB
:104F4000C380082303710023C372B4F862308381E5
:104F5000B4F86430C381B4F866300382FFF7E8F92F
:104F6000D4E90036002B09DAA06823F0004386421A
:104F70002CBFB04480442360A8EB0308A38CB4F892
:104F800062A0CD4913FB07F39BB2B3FBFAF21FFA01
:104F900082F91AFB09F080B2834280F0F980C01ACE
:104FA00040F223124FEAE07C424301FB0C23A0FBBA
:104FB00001011944BEA3D3E90023FBF77BF920F0DC
:104FC0007F4000EB08030C93238DDFF814B3DB1B49
:104FD0004B44238523689E4238BF1E46E36E0A93E6
:104FE00094F91D300D9640F2E248002B08FB0AF6BA
:104FF00080F2E080E36B626C03FB172795F82031A9
:10500000AE4A32F8135094F83830C3F3820332F8C2
:10501000133094F870201D44754305F57425A84B92
:1050200008FB02F205F23F25B5FBF3F5730805FB1B
:1050300009F0963B0744E26400229F4294BF6764F4
:105040006364E5632364A265A0FB0B0198A3D3E925
:105050000023FBF72FF90C9B1B1A0C930A9BB3FB45
:10506000F8F008FB00F092A3D3E90023A0FB0B01AA
:10507000FBF720F9751B20F07F47B4F86430E38418
:10508000B4F86630A4F824A042F2107202FB036365
:10509000013BB3FBF6F3E3858A4B3344B3FBF6F6EF
:1050A00094F86030668613F0040308BF238601215C
:1050B000002003F071FF0022012181461046FDF718
:1050C00061FB94F8202041F6E4230021073200938D
:1050D000D2B27D4B0846FEF7AFF930F002087FF4FC
:1050E00018AEA5FB0BAB72A3D3E90023504659467B
:1050F000FBF7E0F8002320F07F42CDE90A230A996C
:10510000724A94F8206007234B430B9902FB01334A
:105110000A99A1FB02121A4420F07F450846BAEB17
:10512000000011466BEB01014FF47A720023FBF78C
:10513000C1F8E3680D9A94F91DC065491A441346F5
:10514000644A32EA2C0228BF0A4641F6F42108914B
:1051500007365D49F6B2CDE90432CDE90641CDE925
:105160000208CDE900750C9B324641464046FEF7E9
:10517000CFF830F002007FF4CCADB9F1000F3FF46E
:105180009DAE012211460FB0BDE8F04FFDF7FABA0F
:105190000AFB12321FFA82FBABFB010140F2231320
:1051A00003FB0B1142A3D3E90023FBF783F8A8EB21
:1051B000000308E70A993EA3D3E90023A1FB0B01F2
:1051C000FBF778F820F07F40471C354655E794F808
:1051D00060300BB34048FDF747FA054600283FF41E
:1051E00030AE002384F86030E38C06333344A4F8F7
:1051F0006630037943F003030371082343710123ED
:10520000C371052204F161010830FCF7E8FDB4F830
:105210006630A5F80D3010E6B4F86630F31A1904BC
:105220003FF50FAE94F85C3084F85D3004F117055B
:10523000052204F161012846FCF7D1FD052128462D
:10524000FDF7A8FB637F60F30503637701232377F2
:10525000F7E52148FDF708FA054600283FF4F1ADCF
:1052600094F85C3084F85D301C4BC4F88C300379C2
:1052700043F0030303710923437194F91D30002B9C
:10528000B4BF0E2308230822C37100211044FCF789
:10529000D3FDD4F88C302B721A0A1B0C6A72AB72D5
:1052A00029462046FFF79EFC638EA386C9E500BF12
:1052B0008D49FD1A070000000054CE0960B20000BD
:1052C00040420F00FF596202ED3B00008D49FD1A7C
:1052D000895300008D530000740700200C4001002A
:1052E00000CA9A3B94F89030DA0724D42548FDF799
:1052F000BBF9014600283FF4A4AD94F85C3084F873
:105300005D3094F8903043F0010384F890300379D5
:1053100043F003030371062343710C23C371092374
:1053200003726FF00E034372052383724FF0FF3355
:10533000C3720373B5E79B077FF5EBAC94F85C3061
:1053400084F85D300220FEF7D3F900283FF4E1AC89
:10535000238CC38001230371037A43F00303037298
:10536000062343720C23C37294F891300373B4F88C
:105370009230A0F80D30B4F89430A0F80F30FEF75A
:10538000D7FF5EE574070020FFF7BABCFFF7B8BC93
:10539000F8B590F8A8301A0604460F4608D4D0F89D
:1053A000EC502DB11B07D0F8F0C022D5654520D0B8
:1053B00094F8A83043F0800384F8A83003F09AFBF7
:1053C0000378012262F3010300224270D4F8EC203A
:1053D0000370DBB252B143F01003037003786FF334
:1053E00047130370002383703860F8BD62F3041321
:1053F000F3E794F8013194F800112A1DD01811B97F
:10540000417884F8001123B1D15C012666F30101D3
:10541000D15494F80061F61AF6B24670D15C1B2E96
:105420006FF30411D15405D91B214170D15C41F0B7
:105430001001D154296819B1D15C41F01001D15447
:10544000BCF1000FCAD1D4F8F8309D4218BFC4E9AE
:105450003C55C3E7000000002DE9F04F8FB003F08A
:105460001FFBC6B23EB303F03BFB5FFA80F803F0CC
:10547000BBFBC4B203F0C2FB03F06CFD03F058FDAC
:1054800003F07CFBC5B203F0F5FA03F0BDFB03F0BB
:10549000A3FB03F053FD03F069FB6E48437D834695
:1054A000052B01F25082DFE813F05F0087000A004D
:1054B000AD08AD08AD0835463446B046E3E70123F4
:1054C000437503F0A5FC0446962003F0ABFB9BF864
:1054D0001430013BC334032B11D8DFE803F002245E
:1054E000484800231A461946184603F017FB03F0F4
:1054F00005FB03F087FA03F0C9FA054628B14040DE
:1055000080F311884FF0040002DF014603F08FFAA8
:1055100029460444284603F086FA201A03F00EFCBC
:1055200003F05EFC20E0002319461A46184603F0FB
:10553000F5FA9BF83921DBF8343153F822000830B2
:1055400003F060FA03F0A2FA05460028D7D101461D
:1055500003F06DFA29460444284603F064FA201A41
:1055600003F0ECFB03F0F2FA0FB0BDE8F08F00237C
:105570001A461946184603F0D1FA9BF83921DBF890
:105580003431DBF8140153F822100831FEF712FC15
:1055900003F07CFA05460028B1D1014603F047FA32
:1055A00029460444284603F03EFA201A03F0C6FBBD
:1055B0000120FEF745FCD7E72EB903238BF8153001
:1055C00003F046FAD0E7037D013B032B97D8DFE8D1
:1055D00013F004000B026D046D04B8F1000FECD061
:1055E00003F08CFA9BF878202A234FF0270919FB47
:1055F0000239027802F00F03032B07460BEB090573
:105600002AD143780C2B27D19BF82930590600D595
:1056100014B31BF80930C3F38013B3EBD21F1BD1B3
:10562000062207F10801A81CFCF7C9FBA0B9032357
:105630008BF8153003F07CFA9BF8C800272303FB96
:1056400000B07A3003F0E4F903F020FA00288BD0A0
:1056500055E700BF200600203B7803F00F03052B21
:10566000ABD17B78222BA8D11BF8093003F00F03B4
:10567000012B40F0958139462846FEF773FA88B130
:105680003B781BF80920C3F38013B3EBD21F40F023
:1056900085810622B91C05F10800FCF790FBB0FAE1
:1056A00080F04009002888D09BF87A3133B19BF80C
:1056B00078319BF879219A427FF47FAFDBF8CC30C8
:1056C000002B3FF47AAF0420FEF712F805460028BD
:1056D0003FF473AF4FF0040A8BF815A003F0B8F94C
:1056E000DBF8CC40DBF808114FF000084FF4827271
:1056F0002046CBF8CC80FCF7E8FF0322208407F19A
:10570000120104F11400FCF76AFB04F110031846BF
:1057100004F11706524607F10E010A93FCF75FFBEE
:10572000052207F11E013046FCF759FB05213046E2
:10573000FDF730F9627F0A9B60F30502627797F804
:105740002320C2F30402A2773A8BA28440F2E246FD
:105750005643F97EBA7E42EA0122E2841946524655
:1057600004F15400FCF73BFBBB8B42F2107202FBCE
:105770000363013BB3FBF6F3E385934B39463344B4
:10578000B3FBF6F36386238C85F80B804FF001089A
:1057900085F80C80EB8011F8023B0622C3F38013DE
:1057A0002A716B7305F10E00FCF719FB3B8BAB8282
:1057B0007B8BEB82BB8B2B8397F82330C3F3421395
:1057C000AB76208CFEF7F2F9FEF7B2FD0320FDF771
:1057D0008FFF00283FF493AE238CC3800A2303710C
:1057E0003B7813F0200300F0E980627C237CE17CAD
:1057F00043EA0223A27C42EA0122617F534041F046
:1058000040016177E38380F80B80FEF791FD97F804
:10581000232094F838306D49520962F3840384F8E8
:1058200038309BF8203131F8122031F8133013440E
:10583000734303F57423664A03F23F23B3FBF2F389
:10584000E3637308963B23647B7D40F2E24A4FF0AA
:1058500000080AFB03F323654146C4F84C80404628
:1058600003F0E3F85B490A9000F2524054A3D3E9F5
:105870000023A0FB0101FAF71DFDDBF87C516560F8
:1058800027239D4238BF1D4620F07F402360E36BF5
:10589000E060C4F80880F61A03F0B4FA0B90F88AB6
:1058A00041460AFB00AA404603F0BDF80B9BAAF153
:1058B000300A9A440A9BAAEB000AAAEB03030A9354
:1058C00040F2864300930522434BDFF808A141468E
:1058D0004046FDF7B1FD40F28741FEF78DF91BF818
:1058E000093003F00F03012B07D1CDF800804346A8
:1058F000032241464046FDF79FFDA6FB0A6730A301
:10590000D3E9002330463946FAF7D4FCDBF80830F7
:10591000324AA3EB050B94F820300733DBB20B932C
:1059200040F29E4308932E4BCDE906432D4B059341
:10593000E36880461D4420F07F4007230021434355
:1059400002FB0133A0FB02121A440846301A11462A
:105950004FF000044FF47A724FF0000367EB01013F
:1059600004950394FAF7A6FC0A99029028F07F4365
:105970000193A1FB0A0112A3D3E90023FAF79AFCD1
:105980000B9A20F07F4000905B4621460846FDF7C9
:10599000BFFC30F002037FF4B2ADE5E5002081E604
:1059A0009BF82930DB0900D034B139462846FEF790
:1059B000D9F800F0010075E62046FAE7C37224E743
:1059C0008D49FD1A07000000FF59620260B2000015
:1059D00040420F0000CA9A3BF93B00008D49FD1A76
:1059E000ED3B000089530000B8F1000F00F01A826F
:1059F00090F8E130C3F3001313B1002C00F01282D1
:105A000000228DF834209BF83911DBF8342152F84C
:105A10002170DBF8002107F10804DAB19BF87A2144
:105A20002AB19BF878219BF87911914212D1002B71
:105A30005FD19BF8E1203B7AC2F38012C3F380135D
:105A40009A4207D1062207F10A01DF48FCF7B7F9AD
:105A500000284ED03B7A13F00F0302D0062B40F003
:105A6000EE819BF8E120120740F1D881DBF800219C
:105A7000002A40F0D3812846FEF7D0FC05460028D6
:105A800040F0D08103F03AF80378D049032262F362
:105A9000030303703A7ADBB2C2F3801262F3C713D6
:105AA0000C2242709BF8E120D20962F3861304466F
:105AB000062200F8023BFCF792F9062207F10A01E0
:105AC00004F10800FCF78BF99BF8E03043F0020387
:105AD0008BF8E030962002238BF8153003F0A2F803
