:10000000B0C900207D680000E168000009670000B9
:100010000967000009670000096700000967000020
:1000200009670000096700000967000039630000E4
:100030000967000009670000F56200000967000019
:100040004168000093AE0100416800004168000073
:1000500041680000416800004168000041680000FC
:1000600041680000416800004168000041680000EC
:1000700041680000416800004168000041680000DC
:1000800041680000416800004168000041680000CC
:1000900041680000416800004168000041680000BC
:1000A00041680000416800004168000041680000AC
:1000B000416800004168000041680000416800009C
:1000C000416800004168000041680000416800008C
:1000D0004168000041680000416800000000000025
:1000E0007160000000000000756600000000000064
:1000F000756600000000000075660000000000004A
:100100007566000000000000756600000000000039
:10011000B1CC0200D8E10020CDCA020000000000EE
:100120007566000000000000756600000000000019
:10013000756600000000000059AE010000000000DC
:10014000756600004C2F00204DD302000000000017
:1001500075660000000000007566000000000000E9
:100160007566000000000000AD61000000000000A6
:1001700075660000000000007566000000000000C9
:1001800075660000000000007566000000000000B9
:1001900075660000000000007566000000000000A9
:1001A0008DAE010000000000756600000000000038
:1001B0007566000000000000756600000000000089
:1001C0007566000000000000756600000000000079
:1001D0007566000000000000756600000000000069
:1001E0007566000000000000756600000000000059
:1001F0007566000000000000756600000000000049
:100200007566000000000000756600000000000038
:10021000756600007BB972B90029BEBF00204FF09F
:10022000004106E008BF00281CBF6FF000414FF0FE
:10023000FF3000F0BDB9ADF1080C6DE904CE002926
:1002400009DB002B1ADB00F04DF8DDF804E0DDE9F6
:10025000022304B07047404261EB4101002B1BDBDD
:1002600000F040F8DDF804E0DDE9022304B040428C
:1002700061EB4101524263EB43037047524263EB2F
:10028000430300F02FF8DDF804E0DDE9022304B0B9
:10029000404261EB41017047524263EB430300F07F
:1002A00021F8DDF804E0DDE9022304B0524263EBFB
:1002B0004303704753B94AB9002908BF00281CBF3F
:1002C0004FF0FF314FF0FF3000F072B9ADF1080C84
:1002D0006DE904CE00F006F8DDF804E0DDE9022364
:1002E00004B070472DE9F047089E04468846002B6D
:1002F0004BD18A42154667D9B2FA82F24AB1C2F1AD
:10030000200701FA02F320FA07F7954047EA0308AD
:1003100094404FEA154E230CB8FBFEF71FFA85FCFC
:100320000EFB178843EA084307FB0CF1994209D9F1
:10033000EB1807F1FF3080F01B81994240F21881E1
:10034000023F2B445B1AA4B2B3FBFEF00EFB10334A
:1003500044EA034400FB0CFCA44509D92C1900F124
:10036000FF3380F00781A44540F2048102382C4419
:1003700040EA0740A4EB0C0400271EB1D440002340
:10038000C6E900433946BDE8F0878B4209D9002E03
:1003900000F0EB800027C6E9000138463946BDE889
:1003A000F087B3FA83F7002F47D18B4202D3824202
:1003B00000F2FA80841A61EB030301209846002EB4
:1003C000E0D0C6E90048DDE702B9FFDEB2FA82F20A
:1003D000002A40F08F80491B4FEA154E1FFA85F81E
:1003E0000127B1FBFEFC230C0EFB1C1143EA014369
:1003F00008FB0CF1994207D9EB180CF1FF3002D23F
:10040000994200F2CD808446591AA3B2B1FBFEF0A6
:100410000EFB101443EA044408FB00F8A04507D97A
:100420002C1900F1FF3302D2A04500F2B680184625
:10043000A4EB080440EA0C409FE7C7F1200CBB4046
:1004400022FA0CFE4EEA030E01FA07F420FA0CF52C
:1004500021FA0CF34FEA1E482543B3FBF8F92C0CA4
:1004600008FB19331FFA8EFA44EA034309FB0AF426
:100470009C4202FA07F200FA07F10BD91EEB0303C4
:1004800009F1FF3080F087809C4240F28480A9F11E
:10049000020973441B1BADB2B3FBF8F008FB103329
:1004A00045EA034400FB0AFAA24508D91EEB0404FE
:1004B00000F1FF336BD2A24569D90238744440EA97
:1004C0000940A0FB0289A4EB0A044C45C2464B46F6
:1004D00054D351D0002E69D0B1EB0A0564EB03046C
:1004E00004FA0CFCFD40FC404CEA0505C6E900544A
:1004F000002747E7C2F1200320FA03F7954001FAED
:1005000002F021FA03F34FEA154E3843010CB3FB16
:10051000FEF71FFA85F80EFB173341EA034107FB8C
:1005200008F38B4204FA02F407D9691807F1FF3C7B
:100530002FD28B422DD9023F2944CB1A81B2B3FB73
:10054000FEF00EFB103341EA034100FB08F38B423F
:1005500007D9691800F1FF3C17D28B4215D9023830
:100560002944C91A40EA07473BE73746304609E7BE
:100570000746E7E61846FBE64145ABD2B8EB020A70
:1005800069EB0E0201381346A4E76046E9E7184616
:1005900095E76746D1E781467CE702382C4447E778
:1005A000ACF1020C2B442FE7384608E73746E9E662
:1005B000704700BF014B01221A70704700000020F5
:1005C000024B034800221A7000F05CBF00000020BC
:1005D000B3F10200F7B52D4800F054FF002009F0F8
:1005E00071FE044678B310F1450F2CD0284800F076
:1005F00049FF284B28492948CDE900436822284B68
:1006000000F040FF002C3FDB00F064FB00F004F939
:10061000244E254D254C1E202DF0BAFD304600F00D
:1006200031FF2EF0D3F94FF47A73214AB0FBF3F087
:100630008021CDE900501F4B204600F031FF2046BD
:1006400000F00CFBE7E71C481C4F1D4D1D4E0AF047
:100650000FFA1D4800F016FF00243B782BB11B4811
:1006600000F010FF00241A4BC4E7FA202DF090FD93
:10067000295D304600F006FF01340323B4FBF3F399
:1006800003EB4303E41AE8E703B0F0BDD9F102003D
:10069000DFF10200D3F10200AEF102002AF2020003
:1006A0001CF202003FF2020099F202000100002059
:1006B0005AF2020054F20200F0D60020000000209E
:1006C00013F2020018F20200F6F1020001FE02002D
:1006D000D0F102000949BFF35B8F51E8003F43F0BE
:1006E000010241E800200028F7D1BFF35B8FDB0750
:1006F00003D4083902482DF0A1BA704770E40020F5
:10070000B037002030B587B004461422002101A87C
:1007100006F0E7FA0120A0400C23029004931A4D42
:100720001A4803950A238DF814302CF0ADFE0446C8
:1007300080B9174800F0A6FE636801A95B682046EF
:100740009847014610B1134800F09CFEB5F900002F
:1007500007B030BD436810491B689847014610B187
:100760000E4800F08FFE63680D491B6820469847CD
:10077000014610B10B4800F085FE0C220021024812
:1007800006F0AFFAD8E700BF82000020C2F20200F4
:10079000C8F2020047F30200B2F20200DEF20200E9
:1007A000BAF2020012F30200F8B505F061FD074647
:1007B00005F05EFD05460020FFF7A4FF0646022077
:1007C000FFF7A0FF052204460321A808B7FBF1F1BB
:1007D000B0FBF2F201EB410102EB8202821A791ABC
:1007E0003C321431094800F04DFEB1B2084800F027
:1007F00049FEC4F3852101EB810101EB81018900F0
:1008000049B20448BDE8F84000F03CBE67F302007E
:1008100086F3020098F3020000B50D488DB02CF06D
:1008200033FE10B90B4800F02DFE01A800220A4942
:100830002EF02CF94EF66022114601A82EF034F964
:100840002DF00CFD2DF01AFE0DB05DF804FB00BF7D
:10085000ACF30200B0F30200D506000007B5054B6B
:100860000091E5220449054800F00CFE002003B089
:100870005DF804FB29F602000EF4020035F60200D2
:1008800013B5043AD2B2032A9FBF0A480A4B8456D2
:1008900053F82230009188BF084B094909484FF0AE
:1008A000B80288BF6FF0150400F0ECFD204602B0DE
:1008B00010BD00BFD4F30200C4F30200D5F402005F
:1008C000F2F3020035F602000B46F6220149024817
:1008D00000F0D8BD1BF4020055F402009622024934
:1008E000024800F0CFBD00BFE4F302004CF4020068
:1008F00030B5032B08698B8A4FF00005C55485B0CD
:100900000B6902938B6809480949CDE90023094A1C
:10091000094B08BF13464FF0D8020CBF00246FF0FC
:10092000150400F0AFFD204605B030BD9BF4020079
:1009300000F402006BF4020078F4020008B50548E8
:1009400005498C2200F09EFD0448BDE808402CF0CB
:1009500055BD00BF4CF40200D9F30200F4E30020BF
:100960002DE9F0438D4C8E4E97B0DC2200212046BD
:1009700006F0B7F98B4BC4F8B8308B4BC4F8BC30D9
:100980008A4BC4F8D0308A4BC4F8C030894BC4F8C5
:10099000C430894BC4F8C83043F698224FF47A73B8
:1009A000C4E92A23854BC4F8B03007A940F25B7331
:1009B0000020A4F8B43009F021FF9DF81D20049216
:1009C0009DF81E2003929DF81F2002929DF8202082
:1009D000019209AD9DF821209DF82230009212214C
:1009E000774A284600F05CFD29467648256200F0EB
:1009F00049FD206A744D06F0F1F8A08473486060E8
:100A000006F0ECF823782081204643F0010300F83B
:100A1000303B00212BF0CEFC002814BF2B46334680
:100A20000746CDE9000340F22F12694B69496A4835
:100A300000F028FD07BB42F210702DF0A9FB0B2738
:100A400004F130094FF47A702DF0A2FB48462BF0E8
:100A50007BFC002814BF2B4633468046CDE90003BB
:100A600040F23D125D4B5B495B4800F00BFDB8F175
:100A7000000F07D0013FE5D1594800F003FD17B042
:100A8000BDE8F083DFF814914F4FDFF814810B2598
:100A9000494654482BF038FA002814BF3B464346D9
:100AA000CDE9000306464B494B484F4B4FF4A47227
:100AB00000F0E8FC44F620614C482CF0CDFC3EB937
:100AC00094F8D930013D03F0020301D0002BDFD0B0
:100AD00094F8D9309B0703D442482BF07DFCCBE738
:100AE00005F058F9424B009381B2424B3D48364CD9
:100AF000414E3C4F01222BF0CBFA294B35490028BF
:100B000018BF2346CDE900034FF4AC723B4B32488B
:100B100000F0B8FC4FF0FF320EA930462CF04AFF2F
:100B200028B330481E4D284C2BF030FA002814BF53
:100B300023462B46CDE9000340F26912304B25498C
:100B4000254800F09FFC4FF47A702DF021FB2548DA
:100B50002BF042FC002808BF2C46CDE90004294BAD
:100B60001C491D4840F26F1200F08CFC84E710A96C
:100B700038462BF051FA05460EA82CF0A9FE084B7A
:100B800014491548002D18BF2346CDE900534FF4F2
:100B9000B1721D4B00F076FCBCE700BF9000002056
:100BA000D0F102003D090000DD080000C908000086
:100BB00081080000F10800005D080000E9F402006F
:100BC00001F502001FF50200D3F1020049F5020011
:100BD0005AF5020028F402002AF2020064F502002D
:100BE000C1F50200C000002071F50200F4E300200E
:100BF000D8F302000CD7002040E4002081F5020069
:100C0000A3F50200B6F5020093F50200F8B504461C
:100C100010460E46174605F0E1FF00230246214626
:100C20000D482CF0BDFD054698B93946206805F001
:100C30009DFF2068A06105F0D1FF6572A083266149
:100C4000304605F0CBFFA08205F0A4F8A08128462D
:100C5000F8BD6FF00B05FAE74CE3002030B58BB020
:100C600002460546134902A8FFF7D0FF044658B1D3
:100C7000114BCDE90003114B4FF4CA7210491148D2
:100C800000F000FC0BB030BD29460F4800F0FAFB25
:100C9000224602A90D482CF04BFE04460028F1D054
:100CA00002A82CF015FE044B4FF4D172CDE900439D
:100CB000074BE3E751F60200D3F102006AF60200A7
:100CC00036F402002AF2020076F6020040E4002028
:100CD00091F602007FB500230522CDE90232CDE96D
:100CE0000433CDE900334FF48062044B04490548D6
:100CF0002DF094FB07B05DF804FB00BF6109000014
:100D000030390020A034002008B5044608461146BA
:100D10001A46A0472DF0A2FA05F06EFD70B5C66820
:100D200090F90B000C254D43884206EB0504B4BF37
:100D300071592146202492FBF4F401EB84011960DF
:100D400002F01F0070BD07B501ABFFF7E7FF019A86
:100D5000012303FA00F013680343136003B05DF846
:100D600004FB07B501ABFFF7D9FF019A012303FA92
:100D700000F0136823EA0003136003B05DF804FB7E
:100D80002DE9F843044643680589006894F80AC0D1
:100D90005D43FF222844E27200214FF00C0E8C4587
:100DA00005DC00252389AB4222DCBDE8F883D4F8BA
:100DB0000C80B5FBF3F20EFB01F71F2A08EB0706C8
:100DC000C8BF1F324FEA930306F10409C8BF520996
:100DD00003F10303C6E9019923F00303D4BFE172D1
:100DE00048F8070001F10101C8BF00EB8200D6E717
:100DF0006268E36820686A4381181E1D86509A68FD
:100E00004A609A682046116099602A460021FFF7DF
:100E10009AFF0135C6E72DE9F04F8BB0867A00AF17
:100E2000C7E90232B3000A3303F4FF63ADEB030DED
:100E30004368E94604460333484623F0030340F879
:100E400004394FF0FF3500234FF00C0C5A1E9E4220
:100E50007A620ADD2BB102689208033222F00302A3
:100E6000426050F8042F8A420BD27B6A013313D1BF
:100E70003A6D002313606FF00B002C37BD46BDE8C0
:100E8000F08FE2680CFB032202F1040E52687245F7
:100E900018BF1D460133D9E7691CE9D094F81080CA
:100EA00059F8251018F0010805D04FF02003EFF392
:100EB000118883F31188E2680C2303FB052353F8A0
:100EC000046F9E4230D0D6E900231A603268536026
:100ED00022682046B21A92FBF1F22946FFF741FF41
:100EE000237CDA0701D588F31188002E6BD0A9EB9B
:100EF000890305F1010B3B6109EB85057A6A0BF16A
:100F0000FF339A4212DCFB681A467B6A136023683F
:100F10007A6AF31A59F8222093FBF2F3BA68136045
:100F20003B6D00201E60A8E70026D9E7237C13F064
:100F3000010305D04FF02002EFF3118382F31188F3
:100F40003B62236855F8042BF31A93FBF2F33A69DA
:100F50009B00BB6105EB450313447B614FF0010A25
:100F6000D5F800800AFB08F3FB61F3187B60BB69CE
:100F7000594603EB0A022046FFF7E5FE7B6822682C
:100F8000218908F1FF389844A8EB020862684A43B7
:100F900090450AD2E2687969F8690A44111D315016
:100FA0009168596091680B6093600AF1010ABAF187
:100FB000040FD5D1237CDB0702D53B6A83F311886C
:100FC0000BF1010B9AE76FF00A0056E72DE9F04F9D
:100FD00087B0837A9B000A3303F4FF6300AFADEB65
:100FE000030D4368EB46033323F003030446CBF8B9
:100FF00000305D460120814260D20D46164694F8CD
:1010000010805BF82590D4F800A018F0010805D0F6
:101010004FF02003EFF3118883F3118832462946FD
:101020002046FFF790FE002D51D007F11403324601
:1010300029462046FFF772FE7A69042390FBF3F0FD
:1010400083001068D84000F00F000F283FD126F031
:101050000302FA6009F1FF320023BA60FA687B608C
:1010600002EB030A524629462046FFF77AFE564510
:101070007B6816D0B968B4F808C0226809FB0AFA80
:101080000AEB0100616801FB0CF1884202EB0A0ED9
:1010900007D2DEF8040052F80A10016052F80A2064
:1010A00050600133042BD9D1237CDA0701D588F3B2
:1010B00011880423013D96FBF3F6A0E72B689B08FB
:1010C000033323F0030345F8043F013093E709FBA2
:1010D00006F6226861680AEB060309F1FF399944B4
:1010E000A9EB02092289514389450BD2E1680C2200
:1010F00002FB05152A1D4AF80620AA685A60AA684C
:101100001360AB60237CDB0701D588F311881C37A3
:10111000BD46BDE8F08F0020704700000B6801332A
:101120000B60014B1B68184710D700202DE9F04FCA
:1011300085B09B460E9CDFF890A0012CB8BF01241F
:10114000012B0CBF3023202315468046894601948D
:10115000029301260A2700220AF101040AB9AA45CE
:101160001FD2B5FBF4F049463030C04701360122AA
:10117000013F012FB5FBF4F14FF00A0304FB1155B9
:10118000BAFBF3FAE8D1494605F13000C047BBF19C
:10119000030F03D1019B9C1B002C0FDC05B0BDE8A5
:1011A000F08F019BBB42E3DBBBF1020FE0D8494665
:1011B000029803920136C047039AD9E74946202096
:1011C000C047013CE8E700BFFFC99A3B30B58A68D9
:1011D0000C68551C14B14B68934201DC8D6030BD26
:1011E000013B934208BF00228D600CBFE254A05423
:1011F000F5E70000014B1860704700BF10D70020D2
:101200002DE9F04F89B01C464FF0000A531E0646E8
:101210000F4604934FF0FF39D046002505E06DB925
:10122000252800F012813946B047049B13F8010FBE
:1012300004930028F3D109B0BDE8F08F642861D091
:1012400019D839280AD8312850D22D283CD0302836
:101250003DD0252808D13946B047DEE7582800F0B0
:101260008880632800F0EB8039462520B047049B36
:1012700039461878F0E7702871D006D8692841D02F
:101280006C283CD06828D0D0EEE7752857D017D806
:101290007328E9D1236804F1040B1C46254615F890
:1012A000010B002840F0C080B8F1030F40F0D68059
:1012B000E41AA9EB0404002C00F3BC805C46ACE704
:1012C000782856D07A28DEE74FF00308ADE7B9F169
:1012D000000F0EDAB8F1000F00F0BD80A0F1300968
:1012E000B8F1000F08BF4FF002089EE7B9F1000FF8
:1012F000F4DB0A2303FB0909A9F13009F0E70AF13D
:10130000010A92E7BAF1010FC5BF073424F00703C1
:1013100025681D68D4BF043403F10804002D05DAE4
:1013200039462D20B0476D4209F1FF39CDF80090C4
:1013300043462A4639463046FFF7F8FE6DE7BAF1D4
:10134000010FC5BF073424F0070322681A68CDF8DF
:101350000090CCBF03F1080404344346EAE7394661
:101360003020B04739467820B0474FF008094FF099
:101370000108BAF1010FC7BF073424F0070323683F
:101380000593C2BF03F108041B6805934FF00802E0
:101390004FF00003D8BF04340393079393460BF137
:1013A000FF3B059B4FEA8B0023FA00F010F00F0083
:1013B00009D1079B13B9BBF1000F24D14FF0300CBA
:1013C00007E0069AEBE709288CBF4FF0570C4FF067
:1013D000300C394660440692B047039B07950133B1
:1013E0000393BBF1000FECD1B8F1030F7FF415AFFD
:1013F000039BC3EB4905002D7FF70FAF3946202033
:10140000B047013DF7E7531E91450693E9DBB8F17C
:10141000010F03D139463020B047E2E7B8F1020F9F
:10142000DFD139462020F7E7394603932C46B047F1
:10143000039B33E739462020B047013C3BE7206857
:10144000251D3946B0472C46E7E6AA46A8464FF088
:10145000FF390125E9E64FF00108E6E65C4605465E
:10146000E3E6000013B502AC002344F8043D024655
:101470000B4603482146FFF7C3FE02B010BD00BF74
:101480001D1100000FB407B504A951F8040B019118
:10149000FFF7E8FF03B05DF804EB04B0704700000D
:1014A0000CB430B585B008ABCDE9010153F8042B7D
:1014B00000930446002501A906480395FFF7A0FE06
:1014C000DDE902309842B8BF255405B0BDE8304090
:1014D00002B07047CD1100007047000010B54FF00A
:1014E0002003EFF3118483F3118800F0DDFA084A3A
:1014F0000123C2F840354FF08042C2F87835054BE1
:101500004FF0FF329A62DA6284F31188002010BD36
:1015100000E0014000ED00E08B4238B515461C4666
:1015200005D81A46294605F0AFFB204638BD0024F1
:10153000FBE705F0D6BBC3095A00134403EBC30312
:1015400083EA4000C0B27047CB7802785340037002
:101550004B884278534043700A68837883EA1223A9
:1015600083700A68C3785340C370CB7902795340C3
:101570000371CB884279534043714A68837983EA87
:10158000122383714A68C3795340C371CB7A027ABC
:1015900053400372427A4B89534043728A68837A7C
:1015A00083EA122383728A68C37A5340C372CB7B67
:1015B000027B53400373CB89427B53404373CA6819
:1015C000837B83EA12238373CA68C37B5340C3734C
:1015D00070471FB502788DF8002042798DF8012000
:1015E000827A8DF80220C27B8DF8032002798DF873
:1015F0000420427A8DF80520827B8DF80620C2787F
:101600008DF80720027A8DF80820427B8DF809209A
:1016100082788DF80A20C2798DF80B20027B8DF834
:101620000C2042788DF80D20C37A82798DF80E2037
:101630008DF80F3010236A461946FFF76DFF05B08D
:101640005DF804FBF8B5064608780C46FFF773FF13
:1016500005466078FFF76FFFA27863785340E27821
:1016600053405D404540357060782778FFF763FF51
:101670000546A078FFF75FFFA3785F40E3785F40FF
:101680007D4045407570A07865782778FFF753FF57
:101690006F400546E078FFF74EFFE3785F407D40FE
:1016A0004540B5702078FFF746FF637825785D40A8
:1016B000A3785D404540E078FFF73DFFEDB268401C
:1016C000F070F8BDF0B5284E07460C460FCE8DB031
:1016D00001AD0FC50FCE0FC596E8070085E80700DE
:1016E000002F3CD0002C3CD0381F2146024610343D
:1016F0004B780D781B0443EA0563CD782B438D7836
:10170000043143EA05238C4242F8043FF0D1174CE0
:1017100004218A07036918D14FEA33631A0EA55CC6
:10172000DAB2A25C42EA0562C3F30745C3F30723BA
:10173000655DE35C42EA054242EA03220CAD21F01A
:1017400003032B4453F82C3C534050F8042F013131
:1017500053402C290361DCD101200DB0F0BD384687
:10176000FBE72046F9E700BF38F10200AFF60200C0
:101770002DE9F043154689B0804600285BD000294A
:101780005AD0002A5AD010230A4668461946FFF755
:10179000C3FE294668462A4CFFF7D6FE05F110071E
:1017A000A146A03500261DF80630E35C0DF8063092
:1017B0000136102EF7D16846FFF70BFF694604A8E3
:1017C000FFF740FF01A905A8FFF73CFF02A906A803
:1017D000FFF738FF03A907A8FFF734FF334604AA31
:1017E00031466846FFF798FE394668461037FFF7DE
:1017F000ABFEBD42D6D100261DF8063019F80330E5
:101800000DF806300136102EF6D16846FFF7E1FEDE
:1018100029466846FFF798FE33466A4631464046F9
:10182000FFF77AFE684632460021FFF782FE01206C
:1018300009B0BDE8F083FBE70846F9E71046F7E793
:10184000AFF6020010B50A460F3012F9103B002B1C
:10185000B4BF8723002312F8014D83EA4403914269
:1018600000F8013902D01378DB09F4E710BD08B5A0
:1018700020B158220021FFF75CFE012008BD10B501
:10188000044688B110220021FFF753FE102204F114
:1018900030000021FFF74DFE0023636400224FF467
:1018A0008033C4E91423012010BD70B50D461646DF
:1018B000044610B311B358220021FFF73AFE29461F
:1018C000A6643046FFF7FEFE102200212046FFF7F7
:1018D00030FE04F11005A26C21462046FFF748FFB8
:1018E00021462846FFF7AEFF294604F12000FFF706
:1018F000A9FF2046FFF7C3FF012070BD0846FCE7A3
:10190000F8B50D461646044600285CD00AB90120F9
:10191000F8BD002957D0D0E9140150EA010352D094
:1019200010F1FF32606C41F1FF33C4E9142348B376
:10193000C0F11007BE4200F13000204408D2334607
:1019400031462A46FFF7E8FD636C1E446664DEE715
:101950003B462A463946FFF7DFFD00236364F61B4A
:101960003D44631E04F10F0113F8012F93F830007A
:101970008B4282EA00021A70F6D1A26C2146204600
:10198000FFF7F6FE04F10F07102E09D8002EBED087
:1019900033462A46314604F13000FFF7BDFDD5E756
:1019A000631E691E13F8012F11F8010FBB4282EA72
:1019B00000021A70F6D1A26C21462046FFF7D8FE2D
:1019C0001035103EE0E70020A2E770B50C46054652
:1019D000E8B169B34A6C102A1AD11031631E01397B
:1019E00004F10F0013F8012F93F83060724011F8E2
:1019F000016F984282EA06021A70F3D1A26C214666
:101A00002846FFF7B5FE2046FFF731FF012070BDE5
:101A100002F130000021C2F110022044FFF789FDDD
:101A2000636C2344802283F8302004F12001D5E741
:101A30000846ECE70C4B1B78062B10D10B4B1B68B0
:101A40001A070CD10A4B186800F0F003302B08D0AD
:101A500000F0E000A0F140035842584170470020D8
:101A600070470120704700BFE00F00F0E40F00F066
:101A7000E80F00F0094B1B78062B0CD1084B1B68B4
:101A80001A0708D1074B186800F0F000A0F13003E6
:101A90005842584170470020704700BFE00F00F0E7
:101AA000E40F00F0E80F00F008B5FFF7C3FF28B11E
:101AB000784B794A1B68C3F304231360FFF7DAFFFE
:101AC00010B1764B764A1A60FFF7B4FF28B1754B18
:101AD000754A1B68C3F342331360FFF7CBFF20B195
:101AE000724AD36823F08073D360FFF7A3FF40B13D
:101AF0004FF080430022C3F80C21C3F81021C3F833
:101B00003825FFF7B7FF10B1694B03221A60FFF7C2
:101B1000B1FF40B1674B05221A6001229A6700228B
:101B20009A603F225A60644B1B78062B50D1634B5E
:101B30001B6819074CD1624B1B6803F0F003502B54
:101B400046D14FF080525F4BD2F80414C3F82015F1
:101B5000D2F80814C3F82415D2F80C14C3F82815C9
:101B6000D2F81014C3F82C15D2F81414C3F8301599
:101B7000D2F81814C3F83415D2F81C14C3F8401561
:101B8000D2F82014C3F84415D2F82414C3F8481529
:101B9000D2F82814C3F84C15D2F82C14C3F85015F9
:101BA000D2F83014C3F85415D2F83414C3F86015C1
:101BB000D2F83814C3F86415D2F83C14C3F8681589
:101BC000D2F84014C3F86C15D2F84424C3F8702539
:101BD000FFF730FF28B13C4B3C4A1B6803F04F0332
:101BE0001360FFF727FF48B14FF08043D3F800247C
:101BF000D20744BF6FF00102C3F80024344B1B68C6
:101C0000062B08D1334B1B68062B01BF324A1368E1
:101C100043F4806313604FF01023D3F80022002AAE
:101C200003DBD3F80432002B2FDA2C4B0122C3F84C
:101C30000425D3F80024002AFBD04FF010221521F0
:101C4000C2F80012D3F80024002AFBD04FF0102372
:101C50001522C3F80422214B1A46D3F80014002998
:101C6000FBD00021C3F80415D2F80034002BFBD0C0
:101C7000BFF34F8F1A491B4BCA6802F4E06213434B
:101C8000CB60BFF34F8F00BFFDE7174B174A1A60B9
:101C900008BD00BF240300104035014074C0074058
:101CA0000DF0ADBA440200103C050040F0ED00E03C
:101CB000A005004010560040E00F00F0E40F00F0D7
:101CC000E80F00F000C0004058020010E40E004091
:101CD00030010010340100103C17004000E00140CA
:101CE00000ED00E00400FA0534D700200090D00396
:101CF0000369C1688B429DBF8268D21802F1FF322E
:101D000003F1FF3394BF501A581A70472DE9F04180
:101D1000D0E902670446F61B40689642884615469D
:101D2000384405D904F0B0FF3D44E560BDE8F081DA
:101D30003246AD1B04F0A8FF2A4608EB0601606896
:101D400004F0A2FFF1E72DE9F843C568064689468D
:101D500017464FF000083469B3687068A54228BF81
:101D6000E418013C621B5C1BBC4228BF3C46944209
:101D700028BF144649462844224604F085FFB3682C
:101D80002544AB4208BF00253F1BA044A144F56099
:101D9000E1D14046BDE8F88310B5114C114AA2616B
:101DA0000323C4E90433104BE36122664FF48063DC
:101DB0000E4A23626266002310220D49A362E01DD1
:101DC0006362E3622367E3666367A26604F0CEFEA4
:101DD0000849204604F0CAFE2023A37110BD00BFAD
:101DE00024350020AFF702007C0100206C010020A8
:101DF000B8F70200BCF70200DFF888C02DE9F04711
:101E00004FF0180A0AFB00C78946BE6A7D6AAE42D7
:101E100014462BD83B6AA3EB050808F1FF3E724538
:101E200006D800FB0AA39C44DCF8040028440AE01E
:101E30007644B24223D800FB0AA30CEB030690457C
:101E40007068284403D904F01FFF2C440AE042467E
:101E5000A4EB080404F018FF224609EB080170689F
:101E600004F012FF7C620120BDE8F087013E761B82
:101E7000964204D300FB0AA363445868D6E70020C7
:101E8000F2E700BF24350020F8B5184C182300FBFA
:101E9000033503FB00402544C46A012C0F46164657
:101EA00011D003D3022C1BD000240AE02846FFF7F0
:101EB0001FFF864205D8324639462846FFF726FFDF
:101EC00034462046F8BD2846FFF712FF86423446C6
:101ED00028BF0446224639462846FFF717FFF0E799
:101EE0002846BDE8F840FFF72EBF00BF243500208C
:101EF000034A182303FB00239A6A586A801A704722
:101F000024350020FFF748BF08B5FFF7FBFF08BDE9
:101F10000023C0E900337047036823B90160002340
:101F200041600B60704743681960F8E700687047CC
:101F300003680BB11A6802601846704700207047AA
:101F400007B502A9002241F8042D08482BF0C4FB74
:101F500010B100F019FB0190019818B10123436002
:101F60000023038103B05DF804FB00BF543600205A
:101F700004F07EB938B500F0EFFA0D480D4DFFF7CB
:101F8000C7FF0D480D4A121AD2080023934200D110
:101F900038BD00EBC30155F82340097924F007044C
:101FA00001F00701214345F823100133EEE700BF9C
:101FB00088050020FCE1002038EF0200D0F002008C
:101FC000264B2DE9F0410546187810B34FF0200359
:101FD000EFF3118483F311882148FFF7A9FF064628
:101FE00084F3118878B1BFF35B8F1E4B53E8002F49
:101FF000013A43E800210029F8D1BFF35B8F55B1C6
:10200000304600F03FFB1648FFF790FF003018BF46
:102010000120BDE8F081144C144FDFF854803F1BC1
:102020003F09BD42ECDA63685A799AB170891B792D
:10203000B17A800903EB430258F82030D34001F015
:10204000070103F00703994204D8236831461B684F
:102050002046984701351034E3E700BF7C05002097
:102060008805002080050020D0F0020000F1020069
:10207000FCE10020184B70B51B684181054698476C
:10208000164CE860BFF35B8F54E8003F013344E82F
:102090000032002AF8D1BFF35B8F4FF02003EFF33B
:1020A000118683F311880E482946FFF735FF86F322
:1020B00011880C4B1B7823B10020BDE87040FFF75E
:1020C0007FBF23680A2B06D1074B186818B1BDE8FB
:1020D00070402CF09DB870BD38D7002080050020DE
:1020E00088050020900500209405002070B5044666
:1020F0000E461546FFF724FF58B10461447A466145
:10210000012262F3071444722946BDE87040FFF7CC
:10211000B1BF70BD2DE9F0410546884617461E4601
:10212000FFF70EFF60B10561457A022363F30715DF
:102130004572C0E905873146BDE8F041FFF79ABF17
:10214000BDE8F0812DE9F8430546894690461F46D3
:10215000BDF82060FFF7F4FE68B10561457AC761FC
:10216000032363F307154572C0E905983146BDE8BE
:10217000F843FFF77FBFBDE8F88310B51C4600F0B9
:1021800096FA20B12146BDE81040FFF773BF10BD9D
:10219000F8B50D4F3D7865B90C4C0D4E361B360920
:1021A000B54207DB01233B700020FFF709FF002841
:1021B000FAD1F8BD63685B791BB1236820465B6880
:1021C000984701351034EBE790050020D0F002006D
:1021D00000F10200044A054B9B1AB1EBD30F34BF48
:1021E00052F831000020704738EF0200D0F00200B2
:1021F0002DE9F843884615461E4690B91A4B1B4FE9
:10220000FF1A3F0904469946BC4201DBBDE8F8834A
:1022100009EB041033462A464146FFF7E9FF013433
:10222000F2E7436812491A79072302EB420203FAE4
:1022300002F051F8253006F0070623EA0003964025
:1022400033430322002023FA02F404F00704A042DF
:1022500002F1030238BF20461E2AF4D123F00703FF
:10226000034341F82530D1E7D0F0020000F102002D
:10227000FCE100202DE9F84F254BBFF35B8F53E8BD
:10228000004F621C43E800210029F8D1BFF35B8FA7
:10229000E4B9042334221F491F48204D204EDFF8A3
:1022A00094B02BF007FA1F4B1F4A1A604FF40040FE
:1022B00000F06CFD1D4B5B1B4FEA131A1C4BF61A0A
:1022C000F60898464FF00109544501DBBDE8F88F48
:1022D0006B6801341C712B7B6BB10027BE420CD1A3
:1022E0002B689B6803B198476B688BF800900022BD
:1022F0001A6083F805901035E6E708EBC7033A4605
:102300001B7900212846FFF773FF0137E6E700BF7E
:1023100084050020303D002038360020D0F0020037
:10232000D0F0020038D70020711F000000F1020039
:1023300038EF02007C05002008B5FFF79BFF2BF06B
:102340008DFF094A106028B1084B1B68092B01DD7D
:102350002BF05EFF0020FFF733FE0028FAD14FF488
:102360007A702BF015FFF5E794050020800500201A
:102370002DE9F0410C4B0D4CE41A06460F469046F1
:10238000E4080025AC4207D172680123176053713D
:10239000074A1370BDE8F0812A46434600213046C3
:1023A000FFF726FF0135EDE738EF0200D0F002001D
:1023B0007C050020436870B500245C71074D084B14
:1023C000ED1A0646ED08AC4200D170BD002322464E
:1023D00019463046FFF70CFF0134F4E7D0F0020055
:1023E00038EF020053B143680749187900EB400306
:1023F00051F82200D84000F007007047034B03EB70
:10240000C2021079704700BFFCE1002038EF0200E3
:1024100037B50546002201A910482BF05DF90446A6
:10242000D0B90122019BBFF35B8F53E8001F43E843
:1024300000200028F9D1BFF35B8F01982D22294697
:10244000043004F09DFB01987E2380F8313080F841
:102450003240043003B030BD0148FBE7383600207D
:10246000C3F70200054B984205D39C3398428CBFBA
:102470000020012070470020704700BF343D00203D
:1024800007B504380190BFF35B8F50E8003F5A1E38
:1024900040E800210029F8D1BFF35B8F012B03D165
:1024A00001A903482BF040F903B05DF804FB00BF1D
:1024B000383600202DE9F8431C4603899DF820702A
:1024C000DB08A3420E4603D800231360BDE8F8835F
:1024D00011682144994284BF191B11600C2BD2F85A
:1024E000009028D9072CD0F814802BD81830082356
:1024F0004B4528BF4B461D4620441A46FFB1314686
:1025000004F0C2FBA9EB05092E44B9F1000FDDD0A0
:10251000C4F11C054D4528BF4D46201D40442A46A8
:10252000BFB1314604F0B0FBA9EB0509D8F8008033
:102530002E440024E9E714304FF00008D8E70146A4
:102540003046DDE7083C1B2CDFD9D8F800801C3C66
:10255000F9E701463046E5E720231A4601490248DB
:102560002BF0A8B800410020543600200430BFF3FF
:102570005B8F50E8003F013340E80032002AF8D179
:10258000BFF35B8F7047000073B502AC002344F8C3
:10259000043D084E0120FFF713FD002205462146A9
:1025A00030462BF099F808B1002DF3D1019802B014
:1025B00070BD00BF5436002007B502A9002241F8C3
:1025C000042D05482BF088F810B1FFF7DDFF0190CE
:1025D000019803B05DF804FB54360020407A0009EE
:1025E0007047437A1B098B4216D9032B03D800EBA3
:1025F000810148697047012903D800EB810188698E
:10260000704743690239062903D803EB8101486802
:10261000704707391B68F6E7002070477FB5047ADA
:10262000457A019014F001044FEA151510D0019B72
:102630001A7A920706D504AC5B6944F8043D104D44
:10264000039BB3B901A90E482BF06EF804B070BD1E
:10265000002DECD0AC420198E9D22146FFF7C1FF32
:102660000646FFF7FFFE10B13046FFF709FF0134C1
:10267000F0E71E68214628462BF056F80396DFE760
:10268000543600200346021DBFF35B8F52E8001F43
:10269000013942E8001CBCF1000FF7D1BFF35B8F9A
:1026A0005B680BB9FFF7BABF7047006970472DE947
:1026B000F74F83460D461646FFF77EFF0446E0B10E
:1026C000012300224360A6F10208022300F114094D
:1026D00003814261CA4647460092B8F1000F10DC00
:1026E000637AC4F810B066F30713032E637219D827
:1026F000B2002946484604F0C7FA204603B0BDE8B8
:10270000F08FFFF759FF024620B901902046FFF7EE
:1027100085FF019A009BCAF80020A8F10708136002
:102720009246DAE72946082204F11800D4F814800A
:1027300004F0AAFA3E460835072E374628BF072779
:102740004FEA8709294608F104004A4604F09CFA3A
:10275000F61B4D44D8F80080EED1CEE713B5002427
:102760000094FFF7A7FE02B010BD00000EB403B541
:1027700003AB014653F8042B0448019304F06AFBB1
:1027800002B05DF804EB03B0704700BFB52700004E
:10279000436870B51C6805460026D5E9012021462E
:1027A00030442B6852689847241A0644F5D16B6868
:1027B0001C6070BD08B5D1E901321B68D0544A686D
:1027C000136801331360CA68934202D10846FFF7C9
:1027D000DFFF002008BD00002DE9F04F0B7A93B019
:1027E00003F00503052B05460C4609927ED012F036
:1027F0000206134602F0010802F0080706D05E0741
:10280000CA6848D4CC49FFF7B1FF0646B8F1000FBB
:102810000AD0A37AC94A03F0070352F823201AB159
:10282000C7492846FFF7A2FFA37AB4F80A80C3F38A
:10283000C2094FEA98184FB103F00703C14AC249D1
:1028400052F823202846FFF791FF074641464846A5
:10285000FFF7C0FCBD4902462846FFF787FF074443
:102860003E44237AD90700F1FC812046FFF71DFF83
:1028700006462046FFF7B2FE0A2847D8DFE810F0E8
:1028800038003D006A007A009000AC00CF00F700ED
:1028900026017401AF01AE4B1E68002EB6D0AD4BC1
:1028A0004FF4616E1968B2FBF1F14FF47A7CB1FB21
:1028B000F6F3B3FBFEF20EFB123E06FB13130CFB0A
:1028C00003F14FF03C09B1FBF6FA06FB1A110CFBC1
:1028D00001F1BEFBF9F3B1FBF6F609FB13E1009140
:1028E000CDE901A69C49FFF741FF8EE70026B8E736
:1028F00031462846FFF73AFF08E000212046FFF75F
:1029000070FE314602462846FFF730FF237A03F077
:102910000503052B18D0099BD9070BD5A37A874A45
:1029200003F0070352F8233023B18C4A8449284628
:10293000FFF71CFF099BDA0606D49B064CBF8849AB
:1029400088492846FFF712FF2846FFF721FF13B0FA
:10295000BDE8F08F00212046FFF743FE0121074626
:102960002046FFF73EFE3A46034631462846FFF72B
:10297000FDFECBE700212046FFF733FE012107468D
:102980002046FFF72EFE022180462046FFF729FE53
:10299000434600903A4631462846FFF7E7FEB5E742
:1029A00000212046FFF71DFE012107462046FFF7C4
:1029B00018FE022180462046FFF713FE03218146C0
:1029C0002046FFF70EFE4346CDE900903A463146D9
:1029D0002846FFF7CBFE99E700212046FFF701FECE
:1029E000012107462046FFF7FCFD022180462046D4
:1029F000FFF7F7FD032181462046FFF7F2FD042192
:102A000082462046FFF7EDFDCDF80090CDE901A00C
:102A100043463A4631462846FFF7A8FE76E70021AE
:102A20002046FFF7DEFD012107462046FFF7D9FDCE
:102A3000022180462046FFF7D4FD0321814620462F
:102A4000FFF7CFFD042182462046FFF7CAFD05218E
:102A500083462046FFF7C5FDCDE9009ACDE902B0D7
:102A600043463A4631462846FFF780FE4EE70021AE
:102A70002046FFF7B6FD012107462046FFF7B1FDCE
:102A8000022180462046FFF7ACFD03218146204607
:102A9000FFF7A7FD042182462046FFF7A2FD05218E
:102AA00083462046FFF79DFD06210A902046FFF74A
:102AB00098FD0A9B0490CDE902B3CDE9009A434604
:102AC0003A4631462846FFF751FE1FE700212046CF
:102AD000FFF787FD012107462046FFF782FD02210F
:102AE00080462046FFF77DFD032181462046FFF703
:102AF00078FD042182462046FFF773FD05218346B9
:102B00002046FFF76EFD06210B902046FFF769FD7A
:102B100007210A902046FFF764FD0B9B0A9A059057
:102B20000492CDE902B3CDE9009A43463A463146D4
:102B30002846FFF71BFEE9E6F0F70200DCF702008B
:102B4000FCFD02002CF8020015F802001BF8020040
:102B5000980500209C050020F9F7020025F80200E6
:102B600001FE0200DAF8020000212046FFF739FDDD
:102B700001210C902046FFF734FD02210B902046E6
:102B8000FFF72FFD032107462046FFF72AFD04210A
:102B900080462046FFF725FD052181462046FFF7A8
:102BA00020FD062182462046FFF71BFD07218346B4
:102BB0002046FFF716FD08210A902046FFF711FD79
:102BC0000A9B0690CDE904B3CDE9029ACDE90078DD
:102BD000DDE90B3231462846FFF7C8FD96E60021B5
:102BE0002046FFF7FEFC01210D902046FFF7F9FC7F
:102BF00002210C902046FFF7F4FC03210A902046A6
:102C0000FFF7EFFC042107462046FFF7EAFC052109
:102C100080462046FFF7E5FC062181462046FFF767
:102C2000E0FC072182462046FFF7DBFC08218346B3
:102C30002046FFF7D6FC09210B902046FFF7D1FC78
:102C40000B9B0790CDE905B30A9B0093CDE9039A4E
:102C5000CDE90178DDE90C3231462846FFF786FDE3
:102C600054E6237A03F00503052B10AF14D1002698
:102C7000EB6810933A463346A9682046FFF76EFD8D
:102C80006B68109A1A602846FFF782FD109B1E445D
:102C9000002BEDD134492CE62046FFF706FD3349E1
:102CA000DFF8E090DFF8E0B002462846FFF75EFD6F
:102CB0004FF0000812AA082342F80C3D394643465B
:102CC0002046FFF74BFD0F9B002B36D0099BDA0601
:102CD00006D498064CBF264926492846FFF746FDEC
:102CE0004FF0000A56452EDC4FF0000A0F9B9A4524
:102CF00030D217F80A2059462846FFF737FD0AF167
:102D0000010ABAF1080FF1D11B492846FFF72EFD41
:102D10004FF0000A0F9A924521D217F80A20A2F12B
:102D200020015F2928BF2E2214492846FFF71EFDE7
:102D30000AF1010ABAF1080FECD10F9B072B7FF6BD
:102D4000E5AD9844B6E749462846FFF70FFD0AF17E
:102D5000010AC7E70A492846FFF708FDCFE74946B9
:102D60002846FFF703FDE3E71AFD0200FCFD020021
:102D700001FE0200DAF8020016F2020014FE020060
:102D800071630300736303001FF80200084A10B563
:102D90000123084C13600021A04204D801B1136044
:102DA000054B186010BD40085B000121F4E700BF2F
:102DB0009C05002040420F0098050020F8B50D4604
:102DC000164604464718A74201D12846F8BD736845
:102DD00014F8011B5B6830469847F4E77047000021
:102DE00008B503482AF050FB024B586008BD00BFED
:102DF0006CF80200AC05002010B508460C46FFF741
:102E0000B5FB214604480F22FFF7E6FC2046BDE84B
:102E10001040FFF737BC00BF74F8020000230428FD
:102E2000CB604B6098BF044B044A98BF53F82030E6
:102E30008A600B60704700BFFCF90200E8F80200EE
:102E40004B680020587170474B6801225A7100206E
:102E5000704700000022084B0A60CA604A608B601D
:102E6000064A074BD21AB0EB121F3EBF03EB00130A
:102E70009B680B60704700BFD8FC020000F10200A5
:102E8000D0F002002DE9F74F214B224DED1A4B688F
:102E90005B7906460F46ED081BB91F4A022100F078
:102EA0005FFC1E4B1E4ADFF88080DFF88090002117
:102EB000304600F055FC1B4A0021304600F050FC23
:102EC0000024AC4203D1002003B0BDE8F08F2246BD
:102ED000012300213846FFF785FA002322461946D0
:102EE00082463846FFF77EFA214683460020FFF7E8
:102EF00071F958F82B30019358F82A3000934A465C
:102F000003460021304600F02BFC0134D9E700BF16
:102F100038EF0200D0F0020057F902006AF902000F
:102F200076F9020094F90200E8F90200D1F90200F2
:102F300010B50023054ACB600C464B608A60014601
:102F40001846FFF747F9206010BD00BFE8F80200FF
:102F50002DE9F04F0F4698463049314B5B1A85B04A
:102F60004FEAD30B002A14BF13465B4603937B68DA
:102F700002905B7916461BB92A4A042100F0F0FB47
:102F800000253DE0002E47D058F825404FF00009BD
:102F9000D94507D158F82530234A0298022100F07C
:102FA000DFFB2CE049460020FFF714F940222146C0
:102FB00003F029FE50BB4C460023194622463846F2
:102FC000FFF710FA0E9B834228BF03468146224634
:102FD000002138469A46FFF70BF90E9B4B450ED958
:102FE000BEB929463046FFF7F5F803460F4A029866
:102FF00052F82A20009204210D4A00F0B1FB01355D
:10300000039B9D42BEDB05B0BDE8F08F09F10109CD
:10301000BEE758F82530E9E72C46CDE738EF020047
:10302000D0F00200F8F8020025F90200E8F90200E9
:103030000EF902002DE9F04F52F8047C194D85B0CD
:1030400080463846924602938B4603F0C7FD164AE7
:10305000521B1209034601920024019A944208DB94
:103060003B46124A0221404600F07AFB6FF0070609
:1030700013E005EB04191A46D9F8081003933846F3
:1030800003F0C1FD064610B10134039BE5E753464A
:103090005A4649464046029CA047304605B0BDE826
:1030A000F08F00BFD0F0020000F1020010FA020021
:1030B00008B5024BFFF7BEFF002008BD852E0000BB
:1030C000014BFFF7B7BF00BF412E0000014BFFF7D8
:1030D000B1BF00BF492E0000014BFFF7ABBF00BFDF
:1030E00019320000014BFFF7A5BF00BFB732000047
:1030F000012907B5034604D08168D1F84C1289072D
:1031000008D500221846114600F02EFC002003B01E
:103110005DF804FB53680193044B00931368044A61
:10312000022100F01DFB6FF00700F0E79FF802009E
:1031300095F80200C369DB6810B51C792CB9044A04
:10314000022100F00DFB204610BD0120FCE700BF6E
:1031500038FA020010B50446FFF7ECFF20B1E3692E
:103160001B685B6800225A71002010BD10B5044630
:10317000FFF7E0FF20B1E3691B685B6801225A7129
:10318000002010BD70B504460D461646FFF7D2FF6D
:1031900030B1E069334601682A462046FFF772FEE7
:1031A000002070BD2DE9F74F4C1E002361421A46E6
:1031B0006141804601F07AF9064660B9114C124D22
:1031C000DFF84890DFF848A0DFF848B02D1B2D0944
:1031D0000746BD4203DC304603B0BDE8F08F6268AD
:1031E00053791279002B14BF4B465346CDE9003278
:1031F0000021A3685A46404600F0B2FA0137103465
:10320000E7E700BFD0F0020000F10200B4F80200CE
:10321000B2440300BCF802002DE9F74F9046B8F124
:10322000010F1D464FF0000389461A4694BF002146
:103230000121074601F03AF9044668B9D5F804A01F
:10324000DFF84CB0052C0BD16B68104A02213846D0
:1032500000F086FA6FF00704204603B0BDE8F08F57
:1032600004225BF82410504603F0CDFC064608B15A
:103270000134E7E7009405F10803A8F1020249468A
:103280003846FFF765FE3446E6E700BF40F9020026
:10329000E8F9020070B504460D461646FFF74AFFEE
:1032A00040B1E06933462A4601682046BDE87040D7
:1032B000FFF7B2BF70BD2DE9F3411546012D9846C9
:1032C0004FF000030F461A4694BF00210121064625
:1032D00001F0ECF8044638B9009008F104036A1EC6
:1032E00039463046FFF734FE204602B0BDE8F08193
:1032F00070B504460D461646FFF71CFF40B1E06965
:1033000033462A4601682046BDE87040FFF7D3BF28
:1033100070BD0000034B00221A60034B034A1A6081
:10332000704700BF6C06002060060020C805002022
:10333000014B01221A6070476C06002010B5084648
:103340000C46FFF713F9214604480F22FFF744FA11
:103350002046BDE81040FFF795B900BFF4FC02001D
:103360002DE9F84F414B1B688046894653B9404EC2
:10337000DFF810A1054608EB09039D4210D3A5EB29
:1033800008000BE00A4601460020FEF77DFD0546D9
:103390000020FEF7ADFD0028FAD12846BDE8F88FE1
:1033A00015F8013B32680D2B5AD1324F13703B6830
:1033B000314CDFF8D4B0002B13DDDBF8003083B9DB
:1033C000121B214604F1170003F047FC17222B497A
:1033D000204603F059FC3368173333600123CBF8E0
:1033E0000030DBF8003063B13B68632B1A46A8BF9E
:1033F0006322092B23DC202102F130036175237540
:10340000E1744FF0FF311E482AF022FB32681A495E
:10341000C4F1010422440020FEF7EEFC04461848E3
:103420002AF078FBBCB93B6801333B60124B39682A
:1034300003F117020029C8BF134633609BE70A2334
:1034400092FBF3F103FB11233033637530313E23DC
:103450002175E374D5E700233B60CBF80030E5E746
:1034600052453EBF511C3160137084E76C0600204A
:1034700060060020C0050020C805002004FD0200F1
:10348000E0E300205E060020C4050020202805D0CF
:10349000093804288CBF00200120704701207047A4
:1034A0000EB403B503AA52F8041B019201F02CF8E4
:1034B00002B05DF804EB03B0704708B103F08EBBB7
:1034C0007047000070B5049C1D4661B9104B11494E
:1034D000C91AB2EBD10F04D203EBC20253682B60BE
:1034E0000EE00023FBE70028FBD00378466843B1D9
:1034F00021461046B0472368002B08BF00242C60EB
:1035000070BD1201B318B258002A08BF0023E6E7C5
:1035100000F1020038F102000149FFF7C1BF00BF0E
:10352000DAF80200836807B593F822208A4212D0A5
:1035300083F82210406989B1094B009333238DF839
:1035400004302F316D238DF80510ADF806306A4632
:103550000449FFF7A5FF03B05DF804FB024AF7E753
:103560001B5B313BFCFD020030FD02008B6820B983
:1035700003F5147000212BF037BC03F51870F9E740
:103580002DE9F34106460F461446002514B902B052
:10359000BDE8F081706803682246D3F80C80791981
:1035A00001ABC047019B1D44E41A002BEED1B0686B
:1035B0000378032BEAD04FF0FF32012100F5297088
:1035C0002BF076FBE2E72DE9F047054690460E46E4
:1035D000002961D00B469F1B13F8010BFFF756FF24
:1035E0000028F8D13046FFF768FFAB68DA8BC01BC4
:1035F000A2EB080398424FF0000406EB07090FD92D
:1036000019F804100846FFF741FF10B10A292AD023
:10361000234608EB0401914224D20134F0E701343F
:10362000A04216D019F804300A2B07EB040AF6D191
:10363000686900F05DFF494622462846FFF7A0FF73
:103640006869FFF769FF414628460AF1010701F062
:10365000E7F86869F119FFF723FF6869BDE8F047EB
:10366000FFF75ABF1C46686900F042FF22464946F0
:103670002846FFF785FF3C443444A71B14F8010B90
:10368000FFF704FF0028F8D16869FFF745FF4146BE
:10369000284601F0C5F8A5E7BDE8F08770B50446F7
:1036A00040682A4A1E46036886B01D682346A8471C
:1036B0000546002846D1E06801F010FE4FF438724C
:1036C0002946A06803F00DFBA368206893F84C22FC
:1036D00042F0400283F84C22A269156093F84C2214
:1036E00042F0200283F84C2293F84C2242F0080268
:1036F00083F84C2201221A70154ADA61FFF7DDFEC9
:10370000A36893F84C2283F8200042F0040283F867
:103710004C2226B10A9AE069214601F040FE0023BE
:103720006FF00102CDE90232CDE90433CDE9004367
:10373000D4E90901074B4FF400622AF06FFE0649F5
:103740002AF03AFE284606B070BD00BF6D35000075
:103750001800500069430000396E0300FFF710BFE6
:103760000CB47FB508AB0E4653F8045B8168019337
:10377000D1F84C325B07044638D591F82230B34279
:1037800034D002222231684603F07EFA31462046C8
:10379000FFF7C8FE019A6069294600F0B5FE9DF862
:1037A00000102046FFF7BEFE9DF80130CBB1A268A5
:1037B00092F82310994214D045F61B31ADF8081049
:1037C00034218DF80A1003F12F018DF80B106D21B3
:1037D000ADF80C1082F823300749606902AAFFF7A0
:1037E0005FFE04B0BDE8704002B07047019A6069A6
:1037F000294600F089FEF4E7FCFD020037B5826837
:10380000D2F84C321B0604460D4608D592F84C32CD
:10381000C0686FF3C71382F84C3201F0ECFCE36828
:10382000DB687BB9002D37D0A0682C30FFF745FE50
:1038300080B2A368002831D003F12C0103F5967003
:1038400003F094F9A268E06801AB2C32294601F03C
:10385000D5FC50B9A06800F596712C3003F086F9BC
:10386000A0682C30FFF729FE0190204601F014F9E2
:103870000C4A0D496069FFF713FEA3680A4A2C330E
:1038800020460021FFF76CFFA368BDF804201A85CD
:10389000DA84204600F0E8FF03B030BD83F82C0145
:1038A000D0E700BF2CFD0200FCFD02002DE9F04333
:1038B000154E85B005463046884614461F4603F02F
:1038C0008DF98146B8F1000F1AD0CDE90186009438
:1038D00033460E4A00212846FFF742FF2FB9686998
:1038E00005B0BDE8F043FFF717BE621C02EB4902CA
:1038F00092B23946284605B0BDE8F043FFF763BEF3
:1039000005B0BDE8F08300BF03FE020041FD0200E8
:10391000836802221A70002283F82C201A85DA8428
:1039200003210368014AFFF71BBF00BFFCFD020033
:1039300038B583681B78012B04460FD140680368B3
:1039400000219B689847054630B960690549FFF733
:10395000A7FD2046FFF7DCFF284638BD6FF02205A3
:10396000FAE700BFFFFD02002DE9F04F8368634EC8
:1039700089B00446586889461746FFF79EFD0546FC
:10398000304603F02BF9A368009605445B685C4A57
:1039900000212046FFF7E4FEA368ADB22A469968ED
:1039A0002046FFF710FE574803F018F9564A1FFA51
:1039B00080F800212046FFF7D3FEB9F1000F41D077
:1039C000002F3FD00C235F43FB184E4609EB030A40
:1039D000CB460BF10C0BDA4570D14C4B49494C4DA1
:1039E00042462046FFF762FFA06808F1010200216D
:1039F00000F5967003F075F94F44716821B1A06825
:103A000000F5967003F0B2F8316879B1A36803F558
:103A1000967093F82C31002B64D0294603F002F9FC
:103A2000A068316800F5967003F0FCF8A168B368EF
:103A3000424601F5967120460C36FFF737FFB74234
:103A4000DBD105E0314B2F4942462046FFF72EFFE0
:103A5000A368DB6800250395002B4BD02F4604AEEE
:103A6000A068009603AB2A460121C068FFF72AFD33
:103A7000039B05F10108002B39D01868FFF71DFDE5
:103A800080B2874238BF074601352ED1214A002136
:103A90002046FFF765FE0022A0680096012103ABD7
:103AA000C068551CFFF70EFD039919B34B680968F0
:103AB0003A462046FFF7FAFE2A46EDE75BF8080C87
:103AC000FFF7FBFC05465BF80C0CFFF7F6FC054422
:103AD0000F4803F083F8ADB2284480B2804538BF68
:103AE000804676E703F042F8A0E74546B8E7B8F12C
:103AF000010FCBD109B0BDE8F08F00BF3DFD020042
:103B0000F5FD02004BFD0200C6FD0200D1FD0200E2
:103B100056FD0200E4FD02002DE9F04F97B0044687
:103B20000023039300F0BEFF204600F089FE10B989
:103B30006069FFF7F1FCA06810220021043003F057
:103B4000D0F8A06800F126012C3000F00BFEA1682F
:103B5000E068CA8C0A852C3101F086FBA2680C2330
:103B60002C3209A904A800F03DFD049A03462AB1AD
:103B700038B14D4A02212046FFF7F2FD6FF00705EC
:103B80006DE04A494A4ADDF82490A2EB01084FEA69
:103B9000D80806468A46B04508D1464B0093464AA7
:103BA000099B02212046FFF7DBFDE7E70AEBC6038E
:103BB00048465F68396803F019F80546002864D064
:103BC0000136E8E73D49386803F010F878B305ABF3
:103BD0000093424603AB31465046FFF773FCB8F101
:103BE000FF3F2BD0039B4BB31968386802F0FEFFF0
:103BF00008F1010890B9DDF80CC0DCF80C303BB1DD
:103C0000A36803F1040E9CE80F008EE80F00B14694
:103C1000DCF808A0013604374FF00008049B9E42F0
:103C20000CD25946386802F0E1FF0028CAD1A268D8
:103C300092F84C3243F0020382F84C32A2681369C6
:103C4000CBB992687AB11A4619462046FFF78CFE26
:103C5000A26892F84C326FF3410382F84C32284646
:103C600017B0BDE8F08F164A02212046FFF778FD15
:103C70006FF00705ECE7049909AA02EB8902A1EBB2
:103C80000901204698470546E2E797E80F00A66835
:103C9000DFF830B0043686E80F00A946D7F808A050
:103CA00001260AAFB8E700BF74FD020000F1020070
:103CB00038F10200B2FD020098F802008CFD02000B
:103CC00093FD020089FD02002DE9F04F8368BFF3E8
:103CD0005B8FA9B0044603F5137353E8002F42F03D
:103CE000100243E800210029F7D1BFF35B8FA368DE
:103CF0001B78022B73D100230B93606803680122A9
:103D00001D690DF12B010BABA8470B9B002B66D057
:103D10009DF82B100A06F0D4A0684378012B00F020
:103D2000D88247D3022B4FF0000340F09F804370AE
:103D3000D0F84C321A0752D531391B29DDD801A3EE
:103D400053F821F0094300001543000033430000FD
:103D5000FD420000FB3C0000FB3C0000FB3C00007F
:103D6000FB3C0000FB3C0000FB3C0000FB3C000077
:103D7000FB3C0000FB3C0000FB3C0000FB3C000067
:103D8000FB3C0000DF420000E9420000ED42000081
:103D9000F5420000FB3C000001430000FB3C00003A
:103DA0000D430000FB3C0000FB3C0000FB3C00001E
:103DB000194300000D2901D00A2929D1C28C1ABB50
:103DC00090F84C3262F3C71380F84C32E06801F08F
:103DD00012FA6069FFF7A0FB2046FFF799FD6069C2
:103DE00000F086FBA368BFF35B8F03F5137353E802
:103DF000002F22F0100243E800210029F7D1BFF381
:103E00005B8F29B0BDE8F08F2046FFF785FEE3E722
:103E100009292DD011D800293FF46FAF082900F0EF
:103E2000E781A1F120035E2B00F2F18190F84C3282
:103E300043F0800380F84C3204E11B2915D07F2920
:103E4000EFD1D0F84C321D077FF557AF90F84C32C8
:103E500043F0800380F84C32D0F84C32580600F121
:103E6000D281204600F06DFE47E70123437044E70E
:103E7000D0F84C321B077FF540AF90F84C3243F03E
:103E8000800380F84C32C38CFF2B3FF436AF028D99
:103E900000F12C0100F5967002F0F6FEA268138D79
:103EA000134400210DF16C0883F82C1102F5967271
:103EB0000C2341460CA800F095FBA3681A8D13440F
:103EC00093F82B00FFF7E2FA0C9D002D00F03982E9
:103ED00018B9012D00F03882013D00273E460DF152
:103EE0003C09002358F827B017931A4617ABCDF8B2
:103EF00000903946304602F1010AFFF7E3FA179BBA
:103F0000002B4CD01968584602F070FE002846D1AC
:103F1000DDF85CA0BAF1000F3FF4EFAE0137BD420F
:103F2000DAF80860DDD128AB03EB87034FF0000B14
:103F300053F8343C04931846FFF7BFFA5D468146B8
:103F4000CDF814B05E460DF15C08BAF1000F2BD02D
:103F5000DAF80800CDF800801AF1000318BF012339
:103F600002932A4613AB0299FFF7ACFA139BEBB10D
:103F70004A460499186802F046FE70B9139B186807
:103F800002F02CFE059B834238BF03469BB205938B
:103F90000BF1010B0EB9039501260135D5E7179BEF
:103FA0005246002BA2D1A8E65046D3E7BBF1000F42
:103FB0003FF4A3AE28AA02EB8702BBF1010F52F82F
:103FC000346C48D13046FFF778FA0546BAF1000F55
:103FD00035D0DAF80800A36804330093DDE9021253
:103FE00017ABFFF76FFA179B1868FFF766FA854261
:103FF00007D0179B1968421B92B22944204600F053
:10400000CCFDA3681A8D1A4492F82C00FFF73EFAF3
:10401000E0B9D3F84C22D70713D593F84C2260F3BC
:10402000000283F84C222021204600F071FDA26896
:1040300092F84C3243F0010382F84C325DE6504670
:10404000C9E72021204600F063FD56E60121204605
:1040500000F044FC51E630460493FFF72EFAA268C4
:10406000049B9384039B0790CDF810B00693BAF19C
:10407000000F52D0DAF80800A368069A02990433B8
:10408000009317ABFFF71EFA069B01330693002E31
:1040900045D1179BD3F80080B8F1000F4AD1A3682F
:1040A000A3F82480049B013B0493E0D12368A74A32
:1040B00003212046FFF754FBA368A54A04992C333B
:1040C0002046FFF74DFB204600F0E2FB28AB03EB58
:1040D000870050F8348CBAF1000F63D0DAF808008A
:1040E00013AB0093DDE902120DABFFF7EBF90D9B6B
:1040F0001F68039B4FF6FF755E1C9B445E4553D3C0
:104100004046FFF7DAF9002D3FF4F7AD2A1A3918C7
:1041100092B2204600F041FDEFE55046ACE7179B18
:1041200018680028B5D0079A314602F06CFD0028C7
:10413000AFD09CE78748FFF7C0F9059B1844A368F8
:104140001FFA80F98348DD8BFFF7B7F909904046E5
:10415000FFF7B3F9A9EB000083B2A1680893099BAC
:104160008A8CED1AB5FBF9F91FFA89F9501CB2FBDC
:10417000F9F309FB132292B2888462B9CDF800806A
:10418000744B754A07212046FFF7EAFA0899204642
:1041900000F046FB86E743466D4A07212046FFF7BD
:1041A000DFFAF3E750469BE7BAF1000F1ED0DAF8CA
:1041B0000800029917AB009332460EABFFF782F965
:1041C0000D9B19680E9B1868002211F802C0835CD1
:1041D000634505D123B101324FF6FF739A42F4D102
:1041E0009542A8BF1546ADB2013687E75046E0E7D5
:1041F000D0F84C321E077FF580AD90F84C3243F07A
:10420000800380F84C32204600F0B6FC75E50529A5
:1042100076D019D8012979D003297FF46EAD2046D4
:1042200000F040FC204600F00BFB10B96069FFF77E
:1042300073F9A26892F84C3243F0800382F84C3252
:104240002046FFF765FB58E5152924D0172937D0FC
:104250000C297FF452AD414A3D496069FFF720F9CE
:104260003F4A3B496069FFF71BF92368384A03213D
:104270002046FFF775FAA368D3F84C2211077FF5A3
:104280003CAD20462C33324A0021FFF769FA204624
:1042900000F0FEFA31E5204600F0FEFBA3682C4951
:1042A000002283F82C201A85DA8493F84C22606966
:1042B00042F0800283F84C222A4AFFF7F1F81CE50D
:1042C000204600F08FFBA26892F84C3243F0800346
:1042D000B2E65B2901D10223C8E50023C6E501212E
:1042E0002046FFF78BFA08E50021F9E7204600F0A9
:1042F000E8FB02E5204600F0DCFBFEE4032343700C
:10430000204600F0CFFBF8E403234370204600F082
:10431000C3FBF2E403234370D0F84C3290F84C22F4
:1043200003F0010383F0010363F3000280F84C22E1
:10433000E3E403234370D0F84C321B077FF5DDAC78
:104340008FE50027BA46EEE50746FBE7FAFD0200D7
:10435000FCFD020072630300F3FD020034FD020065
:1043600038FD02002CFD0200F0B5044685B04FF484
:1043700024764FF41475A06828442AF02BFDA06819
:10438000002243190121304410352AF07BFCB5F599
:10439000247F06F11406EED12046FFF7C9FA002863
:1043A0007DD1404F404DA0684FF0FF32042100F511
:1043B00024702AF07DFCA06801AA694600F52070EF
:1043C0002AF00DFD009BCBB1A3680022C3F8882220
:1043D000D3F84C32D9060DD4E06900F0EFFF6068E5
:1043E00003685B689847064620B9E06800F031FF33
:1043F000A3681E7029F032FF02F0FEF9A06801AA3E
:10440000694600F51C702AF0EAFC009AA3683AB9E4
:10441000C3F85822C3F868222046FFF755FCC2E7CC
:104420000022C3F87822A068C28C018D143000F0FD
:10443000C3F8A368998A2046494200F0F1F9A368BD
:10444000198B2046013900F0DBF93A4629466069AC
:10445000FFF726F8E06900F0C1FF23682A46064608
:1044600003212046FFF77CF9A368D3F84C221207FA
:1044700008D520462C332A460021FFF771F9204643
:1044800000F006FAA06803AA02A900F514702AF049
:10449000A6FC002E87D0029B002BC4D083E705B07A
:1044A000F0BD00BF2CFD0200FCFD020070B51546FA
:1044B00082681E46D2F84C32C3F3400304462BB147
:1044C00032462946FFF750FA012070BD61B95368A2
:1044D000064A0221FFF744F9204632462946FFF7F3
:1044E00043FA6FF01500F0E71846EEE759FD0200B9
:1044F000026983681268016810B50446C06898476D
:10450000236900221A6010BD10B5044613460A46FE
:104510000146064802F09EFC23691B7923B1204620
:10452000BDE81040FFF7E4BF10BD00BF31450000FB
:1045300038B5CB681B7C022B05460C4604D10A28F3
:1045400002D10D20FFF7F4FF236922681B68D554C0
:1045500022691368013313606268934202D12046D6
:10456000FFF7C6FF002038BD202805D009380428F1
:104570008CBF0020012070470120704708B102F075
:104580002DBB704710B5037B44891A44194492FB34
:10459000F4F091FBF4F304FB102004FB1311401A18
:1045A00010BD10B5037B44891A44194492FBF4F002
:1045B00091FBF4F1401A10BD30B5047B45892144CC
:1045C00091FBF5F305FB1311013101332244018006
:1045D000838092FBF5F3591C05FB13230133C18043
:1045E000438030BD2DE9F74F9946002307468846A2
:1045F00014460360207840B1FFF7B6FF60B1002396
:10460000237001343B684B45F4D33B68002048F8E5
:10461000230003B0BDE8F08F3B685A1C3A6048F8AD
:104620002340064694F800A0BAF1000FEAD0002E0D
:1046300040F08980BAF1270F05D0BAF15C0F0ED097
:10464000BAF1220F77D12046FFF798FF611C02468E
:10465000204602F002FB254656462C46E2E7651C42
:104660002046FFF78BFF29460246204602F0F5FA66
:10467000F3E7BAF15C0F64D162789642F0D0302A49
:1046800026D102234FF0000AE25CA2F13001C9B248
:1046900007295FFA83FB18D8013341EACA01052BC9
:1046A0005FFA81FAF0D19B460BF1FF31214420469D
:1046B0000191FFF763FF0199821CA2EB0B022046D8
:1046C00002F0CBFA84F800A0C7E7BBF1020FEBD1F0
:1046D000782A36D102214FF0000A635CA3F1300240
:1046E000D2B2092AC8B214D842EA0A1303295FFADF
:1046F00083FA0CD10423204603F1FF3B0193FFF71B
:104700003DFF019BA344821CD21A5946D7E70321DF
:10471000E3E7A3F16102052A03D8573B43EA0A13F2
:10472000E4E7A3F14102052A01D8373BF6E7022866
:1047300007D00323DFE75046FFF716FF00287FF47A
:1047400061AF651C89E7B24504F1010591D12046AE
:10475000FFF714FF29460246204602F07EFA25465E
:1047600000267AE770B5037804460D463BB970BD64
:10477000013B9BB22B8013B900232370F7E72B88F2
:10478000E21812F8010CFFF7EFFE0028F0D1E05418
:104790000346E05C9EB2E118FFF7E6FE58B9002E32
:1047A000E5D02A880132D21A204602F056FA2B8828
:1047B0009B1B2B80DBE70133B3F5803FE9D1DBE7BF
:1047C0000EB403B503AA52F8041B0192FFF79CFE36
:1047D00002B05DF804EB03B0704738B58368054656
:1047E0000068DC8C08B102F0F9F9AB68DA8B204480
:1047F000B0FBF2F302FB1300B0FA80F0400938BDC1
:1048000059B1002981EAE172A2EBE172CCBF4123E8
:10481000422302494069FFF7D3BF704710FE0200F0
:1048200059B1002981EAE172A2EBE172CCBF4323C6
:10483000442302494069FFF7C3BF704710FE0200DE
:1048400038B58368054600681C8D08B102F0C6F9CA
:10485000AB68DA8B2044B0FBF2F302FB1300B0FA32
:1048600080F0400938BD000010B50446FFF7E8FFAE
:1048700028B160690549BDE81040FFF7A1BF204697
:10488000FFF7ABFF0028F4D110BD00BFDAF802003B
:10489000F8B584680546E28C218D04F11400FFF719
:1048A0008BFE2846278B668BFFF797FF18B10A49C6
:1048B0006869FFF785FFB74207D1A18AE38A2846D6
:1048C000C91ABDE8F840FFF7ABBF618B238B2846C0
:1048D000C91AFFF795FFF0E7DAF80200F8B50446C9
:1048E0008068038DC28C19448DB214301946FFF7CD
:1048F00063FEA0682A46018D1430FFF752FE07467A
:10490000A0682A46018D1430FFF73CFE7942064626
:104910002046FFF775FF31462046FFF781FFA36869
:104920001D85F8BD70B504460D46164622B1114AE4
:1049300011494069FFF744FFA268138D2C331344DB
:1049400020460D4A0021FEF70BFFA368DA8C1A857A
:104950002046FFF742FF28B106B11DB10749606943
:10496000FFF72EFF6942204609B2BDE87040FFF70D
:10497000B5BF00BF06FE0200FCFD0200DAF802002F
:104980002DE9F0418668F48CA318FF2B0746884672
:1049900015461FDC338DE41A2C331E44A4B2224684
:1049A0003146701902F059F92A464146304602F064
:1049B0006BF9BA68D38C2B449BB2D3841344002286
:1049C00083F82C20BB68D3F84C12090704D41A8D45
:1049D00015441D85BDE8F08121463846BDE8F0410B
:1049E000FFF7A0BFF8B58368DA8C0546002A49D0E6
:1049F000188D002846D02B30184403F12C060346AE
:104A0000C41AB342A4B219460ED31978202903F16F
:104A1000FF3735D01946013B0878202804D00134EF
:104A20009E42A4B21946F5D9631C4E1C121B1944B0
:104A3000304602F012F9A968CA8C121B92B2CA84DD
:104A40000A440027614282F82C70284609B2FFF719
:104A500045FF68690C4A0D49FFF7B2FE33463946F7
:104A600028460A4AFEF77CFE6869094A0749FFF7AB
:104A7000A7FE6869074A0549BDE8F840FFF7A0BEF0
:104A80003B46BDE7F8BD00BF0AFE0200FCFD020088
:104A900006FE02000DFE02008368198D494209B22C
:104AA000FFF71CBF8368D98C1B8DC91A09B2FFF7A9
:104AB00015BF83681B8D1BB14FF0FF31FFF70EBF91
:104AC000704783681A8DDB8C9A4202D20121FFF76E
:104AD00005BF704783680A46198D10B50446481C07
:104AE00018850B44084983F82C206069FFF768FE9D
:104AF0002046FFF7A5FE28B160690449BDE81040D3
:104B0000FFF75EBE10BD00BF14FE0200DAF802001F
:104B100013B583688DF80710D3F84C22D2070446EA
:104B200008D5DA8C1B8D9A4204D0C9B2FFF7D2FFA8
:104B300002B010BD01220DF107012046FFF720FF52
:104B4000F6E738B505468068038DC48CE41AA4B234
:104B50008CB12C3318442246411C02F07EF8AA681E
:104B6000D38C611E013BD3842846012289B2BDE863
:104B70003840FFF7D7BE38BD8368DA8C10B50446DD
:104B800052B11B8D43B14FF0FF31FFF7A7FE204616
:104B9000BDE81040FFF7D5BF10BDFFF7F1BE10B55F
:104BA000044650F8080C436804F130011B6898472C
:104BB00038B901236363E16A54F8043CBDE810404E
:104BC000184710BD00207047002070472DE9F041C4
:104BD000456816461F460C4601EB0208A04507D162
:104BE0003E606B68696B012098470020BDE8F0814A
:104BF000286814F8011B43685B689847EEE770B5B6
:104C000044681D46E36B0E4643B1012204F13801AE
:104C1000304602F039F80023E36301232B600020C3
:104C200070BD000070B544680A481D46164628F05D
:104C30002BFC6563C4E900060834204600220649BF
:104C400029F024FF14222046114629F02DFF0020D0
:104C500070BD00BF6CF802009F4B000007B5032336
:104C6000009301231A4600210348FEF717FD002098
:104C700003B05DF804FB00BF50FE020001F1FF3CF1
:104C8000DCF100014FF0000310B541EB0C011A46B6
:104C90000446FFF70BFC08B9A369186010BD01F1C9
:104CA000FF3CDCF100014FF0000310B541EB0C01BB
:104CB0001A460446FFF7FAFB30B9A26892F84C3264
:104CC00043F0080382F84C3210BD01F1FF3CDCF1E7
:104CD00000014FF0000310B541EB0C011A460446E9
:104CE000FFF7E4FB30B9A26892F84C3260F3C303DB
:104CF00082F84C3210BD01F1FF3CDCF100014FF0B5
:104D0000000310B541EB0C011A460446FFF7CEFB39
:104D100030B9A26892F84C3243F0040382F84C3266
:104D200010BD01F1FF3CDCF100014FF0000310B5B4
:104D300041EB0C011A460446FFF7B8FB30B9A268F4
:104D400092F84C3260F3820382F84C3210BD01F1CC
:104D5000FF3CDCF100014FF0000310B541EB0C010A
:104D60001A460446FFF7A2FB30B9A26892F84C320B
:104D700043F0400382F84C3210BD01F1FF3CDCF1FE
:104D800000014FF0000310B541EB0C011A46044638
:104D9000FFF78CFB30B9A26892F84C3260F38613AF
:104DA00082F84C3210BD0EB403B503AA52F8041BAE
:104DB0000192FFF7A9FB02B05DF804EB03B0704766
:104DC00008B5034A0021FEF7CBFC002008BD00BF58
:104DD000DFFE020038B54C1E61424FF00003614116
:104DE0001A460546FFF762FB044648B9054A0649DC
:104DF0006869FFF7D8FF054A03496869FFF7D3FFE1
:104E0000204638BDB6FE0200FCFD0200BAFE0200DC
:104E100038B54C1E61424FF0000361411A46054609
:104E2000FFF744FB044638B9044A05496869FFF7AF
:104E3000BAFFAB68034ADA61204638BDBFFE020004
:104E4000FCFD02001800500007B54B680193064BAB
:104E500000930B68054A0221FEF782FC6FF01500F3
:104E600003B05DF804FB00BF9FF8020011000300CF
:104E7000A1F1020C38B5DCF100014FF0000315463A
:104E800041EB0C011A460446FFF710FB28B92946EE
:104E90002046BDE83840FFF7D7BF38BD38B54C1EB7
:104EA00061424FF0000361411A460546FFF7FEFAE2
:104EB000044630B9AB69044A1B6801462846FEF730
:104EC0004FFC204638BD00BF1A000300F8B5022988
:104ED0004FF000030E46174688BF00211A4698BFC0
:104EE00001210546FFF7E2FA0446A8B9022E05D1D2
:104EF00039462846BDE8F840FFF7A6BFAB68074A29
:104F0000D3F84C3213F0080F0146054B284618BF62
:104F10001346044AFEF724FC2046F8BD1F20030078
:104F2000C5FE0200C9FE0200A1F1020C38B5DCF199
:104F300000014FF00003154641EB0C011A460446F0
:104F4000FFF7B4FA28B929462046BDE83840FFF7F4
:104F50007BBF38BDA1F1020C38B5DCF100014FF088
:104F60000003154641EB0C011A460446FFF79EFA72
:104F700028B929462046BDE83840FFF765BF38BD4F
:104F800007B58368D3F84C32C3F340033BB100222A
:104F90001146FEF7E9FC012003B05DF804FB01298E
:104FA00006D11A461946FEF7DFFC6FF01500F3E74D
:104FB00053680193034B00931368034A0221FEF7E1
:104FC000CFFBF2E79FF80200110003002DE9FF413B
:104FD0004D1E69424FF0000369411A460446FFF72F
:104FE00065FA0546D8B9DFF840800646A268E06851
:104FF00003AB02F59672012100F000F9039AA36851
:105000005AB103F596730093771C3346424600214C
:105010002046FEF7A5FB3E46E8E783F82C2128460C
:1050200004B0BDE8F08100BFCDFF02002DE9FF41D3
:1050300002294FF000030F46164688BF00211A468A
:1050400098BF01210446FFF731FA054668B9012FE0
:105050000FD073680193544B00933368534A022175
:105060002046FEF77DFB6FF01505284604B0BDE82D
:10507000F0814F4A4F496069FFF795FE6FF0F901E3
:105080002046FFF7BDFBFA212046FFF7C9FBA068C9
:105090008DF80B504FF48072294600F5967001F0A0
:1050A00020FE45496069FFF77EFE6069FFF720FA40
:1050B0004FF47A782E466068036801221F690DF16B
:1050C0000B0103ABB847039B63B908F1FF3801201C
:1050D0001FFA88F829F05CF8B8F1000FEBD16FF0F7
:1050E00022052FE09DF80B30A7681B2B51D097F8B5
:1050F0002C211B2ADFD1522B4BD13E44002386F8B2
:105100002C3197F82D215B2A4BD107F5977102209E
:1051100011F8012B01303B2A80B225D1B0F5807FF8
:10512000DDD000F22B163E44002216F8011F29BBE9
:10513000FA2A28BFFA22FA2B28BFFA2387F82C1163
:10514000FA83BB831D4A1B496069FFF72CFE002DC3
:105150008BD0A3681A4ADA6104211A4A2046FEF766
:10516000FFFA6FF0070580E703EB830302EB4303CD
:10517000303BB0F5807F9BB2CAD1B0E7013080B23E
:1051800002EB8202303901EB4202FF2892B2CCD905
:10519000A5E7BA190136B6B2092E82F82C318AD9A0
:1051A000002387F82C319AE79FF8020011000300D2
:1051B000B0FE0200FCFD0200DAFE0200B3FE0200B7
:1051C00018005000D7FF02004268031D9A4213B531
:1051D0000DD083680068D3E9004202A941F8043D7C
:1051E00014601B685A6028F09FFA02B010BD0023BB
:1051F00001935B68FFDE0023C360704770B51546FE
:1052000002461E4652F8044F944202D100203060FC
:1052100070BDC268B1B9002AF8D0944202D100230F
:10522000C360F3E75468C460002CEFD0228904F116
:105230000A01284601F028FD228932600023AB5480
:105240000120E5E7002AEED083689342E7D0146896
:10525000E9E738B50446051D6368AB4200D138BDA7
:105260002046FFF7B1FFF7E700232DE9F743044697
:105270008946C360164652B3071D4068874219D15C
:105280000193002201A9206828F026FA804608BB75
:10529000019D32462E812E44494605F10A0001F057
:1052A000F3FC86F80A806368C5E9003763685D60CF
:1052B00065600CE001900028E3D003899342E0D1BF
:1052C0004FF480720A3001F09EFC0028D9D103B05F
:1052D000BDE8F0832046FFF777FFD2E7031DC0E962
:1052E00001330023C360704710B5002104464068B5
:1052F00028F0C8FC58B1E368BFF35B8F53E8002F78
:10530000013A43E800210029F8D1BFF35B8F10BDBB
:1053100038B543681D6808460C46FDF727F9EB6968
:10532000DA681279012A06D0032A28D02046BDE87F
:105330003840FDF7A7B95868214628F07FFCEB6993
:10534000DB68BFF35B8F53E8002F511C43E800106C
:105350000028F8D1BFF35B8F072A08DDE869FFF763
:10536000C3FFFDF78FF9AA69136801331360A868BA
:10537000002100F51C70BDE8384029F035BD0F2232
:1053800021469868FDF728FAD0E710B513460C4679
:105390000A4601461846FEF7E1F9204610BD38B529
:1053A000044600680D46FCF7E3FFA3685B685D6098
:1053B000E36800221A6001221A7138BD10B5044654
:1053C000FFF792FF30B92068FCF7F4FFE368022290
:1053D0001A7110BDFDF756F92046F1E738B503689C
:1053E0005B681D68FFF780FF044648B1EB69014622
:1053F0000F229868FDF7F0F92046FDF743F90120E8
:1054000038BD436810B51C686068036801219B685B
:105410009847D0B9E369A068DB68018D03221A714F
:105420001430428AFFF7C8F84FF0FF312046FFF7EB
:10543000E7F9A368998A20464942FFF7F1F9E06944
:10544000FFF7CCFF0028FAD110BDE069BDE810409D
:10545000FFF7B4BF184693F87630022B10B405D18D
:10546000446C1CB1A446036F10BC604710BC70476D
:10547000F8B5034604460A201AF066FB051E19DA41
:105480001A4B1B685A0711D001224FF0000362F338
:1054900002031749174A1848521AD2086FF3C50376
:1054A00062F38F1315492A46FCF734FE002323606C
:1054B0002846F8BD2668D4E91A74A6B90B4B1B68B8
:1054C0005B0710D001234FF0000263F3020208498A
:1054D000084B0B485B1A66F3C502DB0863F38F12B7
:1054E0000849FCF703FEC6E90F74E1E758E2002023
:1054F00038EF0200F0EF0200600603001D06030013
:1055000084060300F005030090F87530112B0BD1D1
:1055100090F8773003F0020319B91BB9436B186890
:10552000704783B10020704769B9436B1B68002B3B
:10553000F4D0BFF35B8F5B68BFF35B8F002BEDDCB8
:10554000436B1960EAE70B88022BEBD00A2B0CD1D6
:10555000036843B1BFF35B8F5B68BFF35B8F002BC6
:10556000DCBF0023036000687047002BDAD1426B78
:105570001268002AD2D0BFF35B8F5268BFF35B8FF3
:10558000002ADCBF426B1360C8E77047F0B514888F
:105590000A2C8DB006460F46154617D1282302AABD
:1055A000291D20461DF0FEFC02A8FCF731FF6A8889
:1055B000130243EA12239BB20093084A034639467A
:1055C0003046FBF76DFF30460DB0F0BD022CFAD02F
:1055D0002346034AFBF764FFF5E700BF49060300D3
:1055E0005106030010B5426B9AB0044604323121D3
:1055F0006846FFF7CBFF626B31211C320DA8FFF725
:10560000C5FF1AB010BD184693F87630022B30B49F
:1056100014460CD129B9836C4BB12146026F30BCC2
:105620001847046C1CB1A446036F30BC604730BC03
:105630007047000010B50846144609B391F865207C
:10564000D2071DD521461A461AF04AFC041E15DA67
:105650000D4B1B685B0711D001224FF0000362F372
:1056600002030A490A4A0B48521AD2086FF3C503CB
:1056700062F38F1308492246FCF74CFD204610BD0B
:105680006FF00104FAE700BF58E2002038EF020093
:10569000F0EF02002C06030008060300F0B50646F2
:1056A00085B00C460D8810466AB1022D32D00A2D05
:1056B00033D15BBA4B800A1D0146284605B0BDE8D0
:1056C000F0401DF057BD0A2D1ED106F120011CF03F
:1056D000B5FA6D46034600F110072A461868596866
:1056E0002E4603C60833BB423546F7D1043404AD19
:1056F000134603CBAB42206061601A4604F10804F4
:10570000F6D1002005B0F0BD022D14BF00206FF0CF
:105710002D00F7E76FF02D00F4E76FF02E00F1E7B2
:1057200038B504461D464BB983880A2B00D0B3B95F
:105730002046FFF79DFE00B9646338BD18880A282B
:1057400006D12046FFF794FE6B886463E380F4E79C
:10575000022804D00028F4D06FF01500EDE76FF0B8
:105760002D00EAE710B5044688B190F87730DB07E2
:1057700010D5006818B11AF077FB0023236094F865
:1057800077306FF3000384F87730002010BD6FF09E
:105790001500FBE76FF00100F8E790F87630022B78
:1057A00001D1FFF7B1BE0020704710B550B190F89D
:1057B0007740E40709D54364029B8364C0E90F1274
:1057C000002010BD6FF01500FBE76FF00100F8E757
:1057D000F0B50D468BB016461F460446002855D03E
:1057E00090F87730DB0754D5C98F686949BB58BB3F
:1057F000E9870BE0B2F80CC012686344002AF9D1C3
:10580000591A002902DD083019F0D2FD94F87530DC
:10581000112B09D195F84930C3F3C303C6B90A2B3C
:105820003AD104F11C061827119B0193109B009399
:105830000294A46B1A4B3A4631462846A0470BB057
:10584000F0BD02460023D9E7838900681944CEE7FA
:105850000A2B21D104AF334606F1180E3A461868D8
:105860005968BC46ACE80300083373456746F6D177
:1058700004F11C070DF1280C134603CB6345386077
:1058800079601A4607F10807F6D1CCE76FF01500EA
:10589000D5E76FF00100D2E76FF02D00CFE700BF32
:1058A0005554000070B586B004460E4615460021DA
:1058B0001822684601F015FA14B9002006B070BD30
:1058C00094F87730DB07F8D594F87630ADF80060BF
:1058D000022BF2D169462046FFF716FE0028ECD0D5
:1058E00029461CF0F1FDE9E738B5044630B390F8DD
:1058F0007730DB0725D590F87630022B1CD10021BC
:10590000FFF702FE0546A36C1BB1226F0021204663
:10591000984725B10023AB6428461AF0A5FA94F8FD
:105920007630022B10D194F8773000206FF3820389
:1059300084F87730E08038BD0025E4E76FF015008B
:10594000F9E76FF00100F6E70020F4E770B51446C0
:1059500013460D460022E16C1AF02CFEE36B2BB1CE
:10596000226F29462046BDE87040184770BD37B504
:105970000546C2880A2325F8043F1302044643EA79
:10598000122329469BB20022FFF788FE94F8753057
:1059900000932A46182321682046FFF74BFE051E78
:1059A00004DA20681AF060FA00232360284603B066
:1059B00030BD00002DE9F04F9BB08A4693461D464E
:1059C000DDE92468BDF89890044628B96FF0150504
:1059D00028461BB0BDE8F08F90F8777017F00107EC
:1059E00040F00B811822394608A801F07AF91822F4
:1059F000394602A801F075F9002E3ED01822314632
:105A000002A801F041F9BDF80830ADF820308DB1A1
:105A10002A880A2A69D16A68002A66D1AA68002AF7
:105A200063D1EA68002A60D12A69002A5DD16A88B8
:105A3000ADF82220022384F87630289B2367724B2E
:105A4000A363724BE36494F8773084F875B043F045
:105A5000040384F8773084F874A008AB5A465146A2
:105A60002046FFF75DFE051E4BDA20680028AFD008
:105A70001AF0FAF900232360AAE7B8F1000F32D038
:105A800098F800305B2B27D16149404601F051F86E
:105A900010B308F10101471A2E2FA8BF2E273A464E
:105AA00001900EA801F0F0F81AAB1F44019B07F813
:105AB000306C981C0A22314600F04CFF83B25BB177
:105AC00099460EAF384601F089F802AA01463846D9
:105AD0001DF09EFC074696E72E2241460EA801F0D7
